:020000040000fa
:080000000002040000000000f2
:020000040000fa
:040008004a030000a7
:020000040000fa
:04000c00c802000026
:020000040000fa
:040010000a030000df
:020000040000fa
:04001400e8020000fe
:020000040000fa
:040018002a030000b7
:020000040000fa
:04001c004a03000093
:020000040000fa
:040020004a0300008f
:020000040000fa
:040024004a0300008b
:020000040000fa
:040028004a03000087
:020000040000fa
:04002c004a03000083
:020000040000fa
:040030004a0300007f
:020000040000fa
:040034004a0300007b
:020000040000fa
:040038004a03000077
:020000040000fa
:04003c004a03000073
:020000040000fa
:040040004a0300006f
:020000040000fa
:040044004a0300006b
:020000040000fa
:040048004a03000067
:020000040000fa
:04004c004a03000063
:020000040000fa
:040050004a0300005f
:020000040000fa
:040054004a0300005b
:020000040000fa
:040058004a03000057
:020000040000fa
:04005c004a03000053
:020000040000fa
:040060004a0300004f
:020000040000fa
:040064004a0300004b
:020000040000fa
:040068004a03000047
:020000040000fa
:04006c004a03000043
:020000040000fa
:040070004a0300003f
:020000040000fa
:040074004a0300003b
:020000040000fa
:040078004a03000037
:020000040000fa
:04007c004a03000033
:020000040000fa
:040080004a0300002f
:020000040000fa
:040084004a0300002b
:020000040000fa
:040088004a03000027
:020000040000fa
:04008c004a03000023
:020000040000fa
:040090004a0300001f
:020000040000fa
:040094004a0300001b
:020000040000fa
:040098004a03000017
:020000040000fa
:04009c004a03000013
:020000040000fa
:0400a0004a0300000f
:020000040000fa
:0400a4004a0300000b
:020000040000fa
:0400a8004a03000007
:020000040000fa
:0400ac004a03000003
:020000040000fa
:0400b0004a030000ff
:020000040000fa
:0400b4004a030000fb
:020000040000fa
:0400b8004a030000f7
:020000040000fa
:0400bc004a030000f3
:020000040000fa
:0400c0004a030000ef
:020000040000fa
:0400c4004a030000eb
:020000040000fa
:0400c8004a030000e7
:020000040000fa
:0400cc004a030000e3
:020000040000fa
:0400d0004a030000df
:020000040000fa
:0400d4004a030000db
:020000040000fa
:0400d8004a030000d7
:020000040000fa
:0400dc004a030000d3
:020000040000fa
:0400e0004a030000cf
:020000040000fa
:0400e4004a030000cb
:020000040000fa
:0400e8004a030000c7
:020000040000fa
:0400ec004a030000c3
:020000040000fa
:0400f0004a030000bf
:020000040000fa
:0400f4004a030000bb
:020000040000fa
:0400f8004a030000b7
:020000040000fa
:0400fc004a030000b3
:020000040000fa
:040100004a030000ae
:020000040000fa
:040104004a030000aa
:020000040000fa
:040108004a030000a6
:020000040000fa
:04010c004a030000a2
:020000040000fa
:040110004a0300009e
:020000040000fa
:040114004a0300009a
:020000040000fa
:040118004a03000096
:020000040000fa
:04011c004a03000092
:020000040000fa
:040120004a0300008e
:020000040000fa
:040124004a0300008a
:020000040000fa
:040128004a03000086
:020000040000fa
:04012c004a03000082
:020000040000fa
:040130004a0300007e
:020000040000fa
:040134004a0300007a
:020000040000fa
:040208004a030000a5
:020000040000fa
:04020c00c802000024
:020000040000fa
:040210000a030000dd
:020000040000fa
:04021400e8020000fc
:020000040000fa
:040218002a030000b5
:020000040000fa
:04021c004a03000091
:020000040000fa
:040220004a0300008d
:020000040000fa
:040224004a03000089
:020000040000fa
:040228004a03000085
:020000040000fa
:04022c004a03000081
:020000040000fa
:040230004a0300007d
:020000040000fa
:040234004a03000079
:020000040000fa
:040238004a03000075
:020000040000fa
:04023c004a03000071
:020000040000fa
:040240004a0300006d
:020000040000fa
:040244004a03000069
:020000040000fa
:040248004a03000065
:020000040000fa
:04024c004a03000061
:020000040000fa
:040250004a0300005d
:020000040000fa
:040254004a03000059
:020000040000fa
:040258004a03000055
:020000040000fa
:04025c004a03000051
:020000040000fa
:040260004a0300004d
:020000040000fa
:040264004a03000049
:020000040000fa
:040268004a03000045
:020000040000fa
:04026c004a03000041
:020000040000fa
:040270004a0300003d
:020000040000fa
:040274004a03000039
:020000040000fa
:040278004a03000035
:020000040000fa
:04027c004a03000031
:020000040000fa
:040280004a0300002d
:020000040000fa
:040284004a03000029
:020000040000fa
:040288004a03000025
:020000040000fa
:04028c004a03000021
:020000040000fa
:040290004a0300001d
:020000040000fa
:040294004a03000019
:020000040000fa
:040298004a03000015
:020000040000fa
:04029c004a03000011
:020000040000fa
:0402a0004a0300000d
:020000040000fa
:0402a4004a03000009
:020000040000fa
:0402a8004a03000005
:020000040000fa
:0402ac004a03000001
:020000040000fa
:0402b0004a030000fd
:020000040000fa
:0402b4004a030000f9
:020000040000fa
:0402b8004a030000f5
:020000040000fa
:0402bc004a030000f1
:020000040000fa
:0402c0004a030000ed
:020000040000fa
:0402c4004a030000e9
:020000040000fa
:0402c8004a030000e5
:020000040000fa
:0402cc004a030000e1
:020000040000fa
:0402d0004a030000dd
:020000040000fa
:0402d4004a030000d9
:020000040000fa
:0402d8004a030000d5
:020000040000fa
:0402dc004a030000d1
:020000040000fa
:0402e0004a030000cd
:020000040000fa
:0402e4004a030000c9
:020000040000fa
:0402e8004a030000c5
:020000040000fa
:0402ec004a030000c1
:020000040000fa
:0402f0004a030000bd
:020000040000fa
:0402f4004a030000b9
:020000040000fa
:0402f8004a030000b5
:020000040000fa
:0402fc004a030000b1
:020000040000fa
:040300004a030000ac
:020000040000fa
:040304004a030000a8
:020000040000fa
:040308004a030000a4
:020000040000fa
:04030c004a030000a0
:020000040000fa
:040310004a0300009c
:020000040000fa
:040314004a03000098
:020000040000fa
:040318004a03000094
:020000040000fa
:04031c004a03000090
:020000040000fa
:040320004a0300008c
:020000040000fa
:040324004a03000088
:020000040000fa
:040328004a03000084
:020000040000fa
:04032c004a03000080
:020000040000fa
:040330004a0300007c
:020000040000fa
:040334004a03000078
:020000040000fa
:100400002f8220000e7f22000e01880000000000d5
:10041000000020000000e000020032000001200087
:1004200020028800140007009c0007000000e00084
:1004300003003a00e09c2000010020000200370089
:100440000000200001002000810f70000100320038
:1004500014000700000020000000e000020032004d
:100460000000020000000000c008020000000000c0
:100470000040da000000fe004440a900c006200051
:100480000000e0000300320000002000a00188000e
:100490004440a800000006008a1f78008b1f7800e7
:1004a0000000060091018800800478000000eb0045
:1004b0001a003700e284440032a0b4009905ba0063
:1004c000e284440032a0b4009906ba00e2844400f9
:1004d00032a0b4000006eb00476fde00fd07b2005b
:1004e000636ce10003003a00ebff07000000eb0043
:1004f0000a003700606ce10004003a00005deb0088
:100500008b05e900fdff3e00040037006168e10053
:10051000010032000086eb000b00070019c7ba008b
:100520001905ba000e04e00003003a000a00e000da
:10053000e0ff3a0000000600fe07b2009e018800be
:100540008a047800f5ff3700395dba008b05e900b1
:100550000c003200295dba008b05e900080032006a
:100560000c00e00003003a00e284440032a0b40032
:10057000f5ff370019ddba008b05e900faff3a00f4
:100580008904e800e184440032a0b40000000600c1
:100590003600f800809fbe00829fbe00849fbe0090
:1005a000869fbe000000fa008020a9000000eb003a
:1005b000640307000080fa004f03be004f02be0034
:1005c0004f01be004f00be003600f900004006009b
:1005d0003600f800809fbe00829fbe00849fbe0050
:1005e000869fbe000000fa005b0307008040a90060
:1005f00010002000530307000080fa004f03be00e4
:100600004f02be004f01be004f00be003600f90091
:10061000004006003600f800809fbe00829fbe00aa
:10062000849fbe00869fbe000000fa008060a90083
:1006300020002000430307000080fa004f03be00a3
:100640004f02be004f01be004f00be003600f90051
:10065000004006003600f800809fbe00829fbe006a
:10066000849fbe00869fbe000000fa008080a90023
:1006700030002000330307000080fa004f03be0063
:100680004f02be004f01be004f00be003600f90011
:10069000004006000040da000000fe0000000500f7
:1006a000889fbe008a9fbe0030044200b0844a008a
:1006b00030054b0090854b006000b1000898be00eb
:1006c0000a90be000440e10005c8e10006d0e10048
:1006d00007d8e10002003100680040001008e8007f
:1006e0004f05be004f04be0000000600889fbe00fc
:1006f0008a9fbe003004be002005be0004185400ce
:1007000005985c0006185d0007985d001100200048
:100710000440e10005c8e10006d0e10007d8e1008f
:10072000010039008000eb00108810004f05be006a
:100730004f04be00000006001200fa00889fbe00b1
:100740008a9fbe008c9fbe00e0b79f00f1b79f005c
:1007500082bf9f0093bf9f000605be000404be0039
:100760000000eb00d0b79f00c0b79f00b0b79f005c
:10077000a0b79f0090b79f00000678005fb1970078
:10078000cfb09700820141003fb097000200e00027
:1007900004003d00370007007e805700c0ff0700bf
:1007a00003003700330007007e805700cfff0700ab
:1007b000dfb697000d00e0000c0035006fb2970027
:1007c000ffb297000fbb97009fbb9700100020005f
:1007d000010020006011b8000002720081827200e6
:1007e00002037300838373001b0007000c06e800fc
:1007f00001042000810f5600e0ff3a000d00e000e8
:1008000004003d000802be000a03be007e805700bf
:10081000a3ff07005fa897000000e00005003a0072
:100820001fb29700afb297003fb39700cfb39700c6
:10083000090007006fb09700ffb097000fb997004d
:100840009fb997004f06be004f05be004f04be0083
:100850000080fa000000060001000700000006000a
:10086000a4b79f00b5b79f00c6b79f00d7b79f003a
:10087000000006004f09de0082817100b3b79f00bf
:100880004f01de008180400082807000a1b79f0090
:100890008fb097004f09de0000004000020070009a
:1008a00090b79f007fa897004f01de008180400035
:1008b0008280700081b79f000d0007004f3ade0074
:1008c0000000400004007000f0af9f000800070027
:1008d0000402420085824a0006034b0087834b00d6
:1008e000dfff07000802be000a03be00000006008a
:1008f0002fb29700bfb297004fb39700dfb39700b6
:1009000000000600881f780018002000881f78006b
:1009100089ff07008f87e9004f0478000000060078
:10092000801feb0084ff07008f87e90000000600ae
:10093000889fbe008a9fbe00e00f5000e08f5800e5
:10094000e00f5900e08f59000c003d006044b800f2
:100950006055b8000000540081805c0002015d0019
:1009600083815d00180020001500070008003d008d
:10097000180007000004eb00050037000004eb003e
:100980000f00070002003d001200070018002000c1
:10099000dcff07000800e000060032006022b8001b
:1009a0006033b8000000520081805a0002015b00f1
:1009b00083815b004f05be004f04be0000000600af
:1009c000e00f5200e08f5a00e00f5b00e08f5b0009
:1009d000000006006044b8006055b80004025400ee
:1009e00085825c0006035d0087835d0000000600d1
:1009f000889fbe008a9fbe008c1f7800e00f5000c9
:100a0000e08f5800e00f5900e08f59000d003d00c5
:100a10006044b8006055b8000000540081805c005c
:100a200002015d0083815d001c0020000820e100c0
:100a300009a8e1000ab0e1000bb8e1000d003d009b
:100a4000080037000006eb00e00f5200e08f5a006c
:100a5000e00f5b00e08f5b0006003d006044b800e3
:100a60006055b8000402540085825c0006035d00f6
:100a700087835d00aaff07000c00e000060032003b
:100a80006022b8006033b8000000520081805a0034
:100a900002015b0083815b004f0678004f05be00ba
:100aa0004f04be0000000600889fbe008a9fbe0063
:100ab0008c1f78000006eb00e00f5000e08f58001c
:100ac000e00f5900e08f590007003d006044b80076
:100ad0006055b8000000540081805c0002015d0098
:100ae00083815d001c002000e00f5200e08f5a005f
:100af000e00f5b00e08f5b0007003d006044b80042
:100b00006055b8000402540085825c0006035d0055
:100b100087835d000c00a2000c0007000c00e000c1
:100b2000060032006022b8006033b80000005200b6
:100b300081805a0002015b0083815b004f067800d0
:100b40004f05be004f04be0000000600889fbe0097
:100b50008a9fbe008c9fbe000404b8000506b80042
:100b60008904460060854e000606b8000a05460066
:100b7000e0854e000706b8008b054600040eb8005d
:100b8000890446000a854e00e0854d00050eb80038
:100b90000a0546008b854e00060eb8008b05460000
:100ba0000416b8000a0546008b854e000516b800ed
:100bb0008b054600041eb8008b0546000800be00e9
:100bc0000a01be004f06be004f05be004f04be0026
:040bd000000006001b
:020000040000fa
:100bd40020480000656c00006c6f0000204d000090
:100be4006175000072690000636900006f210000f4
:100bf40000490000206600006f7500006e6400006c
:100c0400206100006e6f00007468000065720000cf
:100c1400006c0000696200007261000072790000db
:100c2400207400006861000074000000776f000009
:100c3400726b000073200000776900007468000084
:100c44002074000068690000730000004c43000039
:100c5400442e00000054000068650000206200007b
:100c6400726100006e6300006827000073000000da
:100c74006e6100006d65000020690000733a000099
:100c84000066000065610000747500007265000074
:100c94002f6c0000636400005f74000036390000ac
:080ca40036330000630000007c
:020000040000fa
:100cac000200fa00000f78001e0078008000eb00b4
:100cbc006011b80004802400851e20006033b80049
:100ccc0076ff070004a02c00a5b923006033b80000
:100cdc0009ff07000000be00890107000080fa0030
:100cec00000006000400fa00000f7800214798006d
:100cfc001e00780000407800614060000080fb001e
:100d0c00610060004800dd00511680000180a100e8
:100d1c000100700050168800cb62a90051168000ab
:100d2c0000f02f00808060002e4090000000fb003f
:100d3c000100700050168800cb22a900800c200006
:100d4c00d7ff0700cb22a800cb62a800800c2000a4
:100d5c00d3ff07000080fa00000006000200fa0032
:100d6c00004f7800114798009e4090000000eb0067
:100d7c00dcff07009e40780010002000d9ff070020
:100d8c0000a62e00c6ff07000080fa000000060037
:100d9c000400fa00004f7800114798002247980091
:100dac009e4090000000eb00ceff0700ae4090008c
:100dbc000000eb00cbff07009e40780010002000e5
:100dcc00c8ff070000a62e00b5ff07000080fa0040
:100ddc00000006000000fa0001cbb3001000200058
:100dec00c0ff070000a62e00adff070000a62e00d6
:100dfc00abff07000080fa00000006000000fa00bc
:100e0c0021cbb30010002000b6ff070000a62e0077
:100e1c00a3ff070000a62e00a1ff07000080fa0028
:100e2c00000006000200fa00004f7800cb02a90077
:100e3c00cb62a9005116800000f02f00808060006a
:100e4c001e00fb000100700050168800cb22a90088
:100e5c00800c200092ff0700cb22a800cb62a800d8
:100e6c00007721008eff07000080fa0000000600ca
:100e7c000200fa00004f78009e40780000ceb300cc
:100e8c0000c04000e7ff07000080fa0000000600e9
:100e9c000200fa00000f7800ceff070004003700b4
:100eac001e00780010407800f1ff07001e0fe800cc
:100ebc001e007800104078000004e000f8ff3a00b3
:100ecc00ceff07000080fa00000006000200fa00c6
:100edc008040eb000040eb005a000700bdff07000c
:100eec000000eb00000f7800030037000040eb001f
:100efc00ccff07001e0fe800f06320009e00780076
:100f0c00808f5000f9ff360032c0b3008040eb00f8
:100f1c0040c2b3009eff07000000eb00000f7800fa
:100f2c00030037000040eb00beff07001e0fe80077
:100f3c00f06320009e007800808f5000f9ff36008f
:100f4c00aeff07008040eb000040eb0053000700b1
:100f5c000080fa00000006000200fa00c782a90017
:100f6c00c702a900c722a900c742a900c762a900ed
:100f7c003116800000f02f000080600030168800d1
:100f8c00cb62a800cb42a800cb02a800cb22a800c1
:100f9c00cb82a9000000eb00000f780003003700a3
:100fac0000a62e003eff07001e0fe8001e00780072
:100fbc00e90f5000faff3600cb82a8000041eb008d
:100fcc008040eb0000c4b30071ff07000041eb0050
:100fdc0081c2b30010c4b3006dff070032c0b30070
:100fec008040eb0020c4b30069ff07000041eb0018
:100ffc0081c2b30030c4b30065ff070041c8b30021
:10100c001000200037ff0700f1c9b30010002000ca
:10101c0034ff070071cab3001000200031ff070035
:10102c00aaff07008040eb000040eb000500070022
:10103c008040eb000040eb00180007000080fa0035
:10104c00000006000400fa00204798003147980081
:10105c002e4090008080fb00800220000088b900a8
:10106c00800078003e4090000080fb00008f400024
:10107c001e0078004800de00804078001e007800da
:10108c0000407800014178008040780040c2b300f5
:10109c003fff07000080fa00000006000200fa0083
:1010ac00004f7800114798009e4078001e40900039
:1010bc00014178008040780010c2b30034ff070073
:1010cc000080fa00000006000200fa00000f780011
:1010dc000300370000e8230001002000880007000f
:1010ec001e00780000f0a7000000ea000000ea00f3
:1010fc004f00de00004078001e0fe9000004e00005
:10110c00f4ff3a000080fa00000006000200fa002a
:10111c00000f78000500370000202000010020009f
:10112c007700070001fe2f001e8f40001e00780084
:10113c00ff0f5000f8ff3e000300370000012000b5
:10114c00010020006e0007001e00780000f0a700d0
:10115c000000ea000000ea004f00de0000407800ca
:10116c001e0fe9000004e000f4ff3a000080fa00d2
:10117c00000006000000fa008d00070076ff070053
:10118c00a05e280042ff07008040eb0020c0b300a7
:10119c00acff0700b05f28003dff07008040eb006c
:1011ac0030c0b300a7ff0700b060280038ff07006d
:1011bc008040eb0040c0b300a2ff07008061280014
:1011cc0033ff07008040eb0050c0b3009dff0700c9
:1011dc00806228002eff07008040eb0070c0b30037
:1011ec0098ff0700d062280029ff07008040eb0021
:1011fc0080c0b30093ff0700a063280024ff070002
:10120c008040eb0090c0b3008eff070030642800d4
:10121c001fff0700ffff37000000fa00c422ef0099
:10122c00ca22ef00d022ef00d622ef00dc22ef0022
:10123c00e222ef00e822ef00f06f2c00001688008d
:10124c00000c200030168800e00127006016880092
:10125c000080eb0090168800f03f2000c01688003c
:10126c00f01f2300f0168800f03c2f002017880098
:10127c006820ef006a20ef00c026ef00c626ef00c2
:10128c00cc26ef00d226ef00d826ef00de26ef00aa
:10129c00e426ef000080eb00601988000080fa0063
:1012ac00000006000000fa0000102300203a88001d
:1012bc004827ef007027ef007227ef007427ef002c
:1012cc002200200080072000a10920003374200098
:1012dc008049780081497800824978000001eb0050
:1012ec0060042000710520002374200080497800e0
:1012fc0081497800824978000080fa0000000600dd
:020000040000fa
:10130c00f03fb1000180b10006003500ee0309008a
:10131c0000000000403fb1000180b100fbff3d0028
:10132c001000b000203fb000020035000080090022
:08133c000000000000000600a3
:020000040000fa
:101344000200fa00000f78009e0078000140880037
:10135400ffff37000000fa0020802000800778009b
:10136400a0812000000188000080fa00000006002f
:101374000000fa00401f200055ff07000080fa001b
:10138400000006000000fa0000352c0061ff070091
:081394000080fa0000000600d1
:020000040000fa
:10139c00020800002000000000000000000800000f
:1013ac000200000002000000ffff0000000000002f
:020000040000fa
:1013bc000000fa0098ff0700baff070002000700c0
:1013cc000080fa00000006000000fa000080fa001d
:0413dc000000060007
:020000040000fa
:020000040002f8
:04aff800be7a00001d
:020000040000fa
:020000040002f8
:04affc007f3f000093
:00000001FF
