:020000040000fa
:080000000002040000000000f2
:020000040000fa
:040008004a030000a7
:020000040000fa
:04000c00c802000026
:020000040000fa
:040010000a030000df
:020000040000fa
:04001400e8020000fe
:020000040000fa
:040018002a030000b7
:020000040000fa
:04001c004a03000093
:020000040000fa
:040020004a0300008f
:020000040000fa
:040024004a0300008b
:020000040000fa
:040028004a03000087
:020000040000fa
:04002c004a03000083
:020000040000fa
:040030004a0300007f
:020000040000fa
:040034004a0300007b
:020000040000fa
:040038004a03000077
:020000040000fa
:04003c004a03000073
:020000040000fa
:040040004a0300006f
:020000040000fa
:040044004a0300006b
:020000040000fa
:040048004a03000067
:020000040000fa
:04004c004a03000063
:020000040000fa
:040050004a0300005f
:020000040000fa
:040054004a0300005b
:020000040000fa
:040058004a03000057
:020000040000fa
:04005c004a03000053
:020000040000fa
:040060004a0300004f
:020000040000fa
:040064004a0300004b
:020000040000fa
:040068004a03000047
:020000040000fa
:04006c004a03000043
:020000040000fa
:040070004a0300003f
:020000040000fa
:040074004a0300003b
:020000040000fa
:040078004a03000037
:020000040000fa
:04007c004a03000033
:020000040000fa
:040080004a0300002f
:020000040000fa
:040084004a0300002b
:020000040000fa
:040088004a03000027
:020000040000fa
:04008c004a03000023
:020000040000fa
:040090004a0300001f
:020000040000fa
:040094004a0300001b
:020000040000fa
:040098004a03000017
:020000040000fa
:04009c004a03000013
:020000040000fa
:0400a0004a0300000f
:020000040000fa
:0400a4004a0300000b
:020000040000fa
:0400a8004a03000007
:020000040000fa
:0400ac004a03000003
:020000040000fa
:0400b0004a030000ff
:020000040000fa
:0400b4004a030000fb
:020000040000fa
:0400b8004a030000f7
:020000040000fa
:0400bc004a030000f3
:020000040000fa
:0400c0004a030000ef
:020000040000fa
:0400c4004a030000eb
:020000040000fa
:0400c8004a030000e7
:020000040000fa
:0400cc004a030000e3
:020000040000fa
:0400d0004a030000df
:020000040000fa
:0400d4004a030000db
:020000040000fa
:0400d8004a030000d7
:020000040000fa
:0400dc004a030000d3
:020000040000fa
:0400e0004a030000cf
:020000040000fa
:0400e4004a030000cb
:020000040000fa
:0400e8004a030000c7
:020000040000fa
:0400ec004a030000c3
:020000040000fa
:0400f0004a030000bf
:020000040000fa
:0400f4004a030000bb
:020000040000fa
:0400f8004a030000b7
:020000040000fa
:0400fc004a030000b3
:020000040000fa
:040100004a030000ae
:020000040000fa
:040104004a030000aa
:020000040000fa
:040108004a030000a6
:020000040000fa
:04010c004a030000a2
:020000040000fa
:040110004a0300009e
:020000040000fa
:040114004a0300009a
:020000040000fa
:040118004a03000096
:020000040000fa
:04011c004a03000092
:020000040000fa
:040120004a0300008e
:020000040000fa
:040124004a0300008a
:020000040000fa
:040128004a03000086
:020000040000fa
:04012c004a03000082
:020000040000fa
:040130004a0300007e
:020000040000fa
:040134004a0300007a
:020000040000fa
:040208004a030000a5
:020000040000fa
:04020c00c802000024
:020000040000fa
:040210000a030000dd
:020000040000fa
:04021400e8020000fc
:020000040000fa
:040218002a030000b5
:020000040000fa
:04021c004a03000091
:020000040000fa
:040220004a0300008d
:020000040000fa
:040224004a03000089
:020000040000fa
:040228004a03000085
:020000040000fa
:04022c004a03000081
:020000040000fa
:040230004a0300007d
:020000040000fa
:040234004a03000079
:020000040000fa
:040238004a03000075
:020000040000fa
:04023c004a03000071
:020000040000fa
:040240004a0300006d
:020000040000fa
:040244004a03000069
:020000040000fa
:040248004a03000065
:020000040000fa
:04024c004a03000061
:020000040000fa
:040250004a0300005d
:020000040000fa
:040254004a03000059
:020000040000fa
:040258004a03000055
:020000040000fa
:04025c004a03000051
:020000040000fa
:040260004a0300004d
:020000040000fa
:040264004a03000049
:020000040000fa
:040268004a03000045
:020000040000fa
:04026c004a03000041
:020000040000fa
:040270004a0300003d
:020000040000fa
:040274004a03000039
:020000040000fa
:040278004a03000035
:020000040000fa
:04027c004a03000031
:020000040000fa
:040280004a0300002d
:020000040000fa
:040284004a03000029
:020000040000fa
:040288004a03000025
:020000040000fa
:04028c004a03000021
:020000040000fa
:040290004a0300001d
:020000040000fa
:040294004a03000019
:020000040000fa
:040298004a03000015
:020000040000fa
:04029c004a03000011
:020000040000fa
:0402a0004a0300000d
:020000040000fa
:0402a4004a03000009
:020000040000fa
:0402a8004a03000005
:020000040000fa
:0402ac004a03000001
:020000040000fa
:0402b0004a030000fd
:020000040000fa
:0402b4004a030000f9
:020000040000fa
:0402b8004a030000f5
:020000040000fa
:0402bc004a030000f1
:020000040000fa
:0402c0004a030000ed
:020000040000fa
:0402c4004a030000e9
:020000040000fa
:0402c8004a030000e5
:020000040000fa
:0402cc004a030000e1
:020000040000fa
:0402d0004a030000dd
:020000040000fa
:0402d4004a030000d9
:020000040000fa
:0402d8004a030000d5
:020000040000fa
:0402dc004a030000d1
:020000040000fa
:0402e0004a030000cd
:020000040000fa
:0402e4004a030000c9
:020000040000fa
:0402e8004a030000c5
:020000040000fa
:0402ec004a030000c1
:020000040000fa
:0402f0004a030000bd
:020000040000fa
:0402f4004a030000b9
:020000040000fa
:0402f8004a030000b5
:020000040000fa
:0402fc004a030000b1
:020000040000fa
:040300004a030000ac
:020000040000fa
:040304004a030000a8
:020000040000fa
:040308004a030000a4
:020000040000fa
:04030c004a030000a0
:020000040000fa
:040310004a0300009c
:020000040000fa
:040314004a03000098
:020000040000fa
:040318004a03000094
:020000040000fa
:04031c004a03000090
:020000040000fa
:040320004a0300008c
:020000040000fa
:040324004a03000088
:020000040000fa
:040328004a03000084
:020000040000fa
:04032c004a03000080
:020000040000fa
:040330004a0300007c
:020000040000fa
:040334004a03000078
:020000040000fa
:100400006f8220000e7f22000e0188000000000095
:10041000000020000000e000020032000001200087
:1004200020028800140007009c0007000000e00084
:1004300003003a00a0cc2100010020000200370098
:100440000000200001002000810f70000100320038
:1004500014000700000020000000e000020032004d
:1004600000000200000000004c1c02000000000020
:100470000040da000000fe004440a90020de200019
:100480000000e0000300320000002000a00188000e
:100490004440a800000006008a1f78008b1f7800e7
:1004a0000000060091018800800478000000eb0045
:1004b0001a003700e284440032a0b4009905ba0063
:1004c000e284440032a0b4009906ba00e2844400f9
:1004d00032a0b4000006eb00476fde00fd07b2005b
:1004e000636ce10003003a00ebff07000000eb0043
:1004f0000a003700606ce10004003a00005deb0088
:100500008b05e900fdff3e00040037006168e10053
:10051000010032000086eb000b00070019c7ba008b
:100520001905ba000e04e00003003a000a00e000da
:10053000e0ff3a0000000600fe07b2009e018800be
:100540008a047800f5ff3700395dba008b05e900b1
:100550000c003200295dba008b05e900080032006a
:100560000c00e00003003a00e284440032a0b40032
:10057000f5ff370019ddba008b05e900faff3a00f4
:100580008904e800e184440032a0b40000000600c1
:100590003600f800809fbe00829fbe00849fbe0090
:1005a000869fbe000000fa008020a9000000eb003a
:1005b000ec0c07000080fa004f03be004f02be00a3
:1005c0004f01be004f00be003600f900004006009b
:1005d0003600f800809fbe00829fbe00849fbe0050
:1005e000869fbe000000fa00e30c07008040a900cf
:1005f00010002000db0c07000080fa004f03be0053
:100600004f02be004f01be004f00be003600f90091
:10061000004006003600f800809fbe00829fbe00aa
:10062000849fbe00869fbe000000fa008060a90083
:1006300020002000cb0c07000080fa004f03be0012
:100640004f02be004f01be004f00be003600f90051
:10065000004006003600f800809fbe00829fbe006a
:10066000849fbe00869fbe000000fa008080a90023
:1006700030002000bb0c07000080fa004f03be00d2
:100680004f02be004f01be004f00be003600f90011
:10069000004006000040da000000fe0000000500f7
:1006a00003f0a200889fbe008a9fbe008c1f7800c6
:1006b000b1000700b80033006450e1004f00320081
:1006c0006420e1005200320003826c0007003b000e
:1006d0000905d0000306d000820f54000c065d000f
:1006e0000200390002003200890178000306780018
:1006f0008582550004003d000003fd008103fd00dc
:100700008502ea008b854200840f720002003b00e4
:1007100060001000e08018006011b8000005eb00d8
:100720007a28e1000a00390006007800c75ddd0084
:10073000f707b200878075002d00370082817100b5
:100740000a017800610560008180d1000080d3003b
:100750008502e900f9ff3b00060440008784480059
:1007600002003b0060041400e0841c000988a30020
:10077000070032008a81710082817100610164008a
:100780008904d1000884d3008b05e80017003700e6
:100790000978a30013003a000b00e00013003400b6
:1007a0008b05e9000804440089844c000a44740065
:1007b0000978a3000d003a000b00e00007003400a8
:1007c0008b05e9000804440089844c0001003a00cc
:1007d0000b0020000978a300f7ff32000001eb00b6
:1007e00002003700828171000a01780027000700ab
:1007f0000cf0a70001f0a000700037006420e100b9
:1008000002003a00838f6c00700033000801be00c4
:100810000200be00690037000001be004100070071
:100820000470a70003f0a10003f8a30013003a002e
:100830006509b10010003200090035006928e100a7
:100840000200350001002800000005000000400003
:10085000818048008502e900fcff3a0000000600a4
:10086000f88f4200050035008100d1000080d300e0
:100870008502e800fcff3a00000006008000eb0063
:10088000000005006011b8009700370081002000cb
:10089000618055000b003d000b00200061fe2f0021
:1008a0000100e1001d0034008281710061016400db
:1008b0008904d1000884d3000000e800faff3a0060
:1008c00071002000610064000300700002006000fd
:1008d0000900320061044400e0844c000988a5004e
:1008e000050032008b05e8006808e10002003a00cc
:1008f0008904d1000884d300f20f20000258e100df
:1009000005003d00c75ddd00f907b2008980750074
:1009100008007800000006000bf827008b00780024
:1009200000000500c70ade00f107b200f50fb200b3
:1009300008003200e1cf4200020032000170a00046
:1009400024000500810f700001003200040805003a
:1009500044000500810f700002003a0014000500f9
:100960008502e9000000400081c04800fcff3b0018
:100970000170a000240005000004be00e9ff07008c
:100980000003be000405be000200be00e5ff070034
:10099000844f7500000006000200be006450e100b4
:1009a000050036006420e100020036000968a3005b
:1009b00001003a000800be000160a0004f06780068
:1009c0004f05be004f04be0000000600f0ff2f00e0
:1009d000f1ff2700f9ff3700889fbe008a9fbe0005
:1009e0008c1f7800e4ff0700ebff330003866c00e8
:1009f0006450e100240032006420e100270032004e
:100a00006150e100220032006120e100210032004b
:100a10008b854200eb07b1000134b800003ab80002
:100a20000804420089844a00013ab8000030b80046
:100a30008880400009014a000400330000004000a3
:100a400081804800020149008b05e900c909dd00e9
:100a5000830170000100320013002000c814de0082
:100a60004814dd004709de001200b200c808de00ad
:100a70000884700085ff070001f0a1000cf0a700ba
:100a800001f0a000cdff37006120e100cfff320070
:100a90000801be000200be00f7ff37006150e10010
:100aa000fcff3a00c9ff37006022b80006022000b0
:100ab0000000d0008180d2000482d2008582d20062
:100ac0000000a0000202520083825a00030031009d
:100ad0000202420083824a000000a1000603e900ee
:100ae000f3ff3a0000000600889fbe008a9fbe0008
:100af000008270000402710004827100260032003e
:100b00000004be000200be006011b8006b092000a6
:100b1000950220000182cf000a0039000541b10092
:100b20000082cf00070039000541b1000982cf00e3
:100b3000040039000541b1000882cf0001003900ee
:100b40000541b10005425200120032000a003b008c
:100b500082817100610164008100d1000080d300b6
:100b60008984d3000884d3008b05e8000442e800a0
:100b7000f7ff3a00070037000804440089844c005e
:100b800000004800818048008b05e9000442e9002c
:100b9000f9ff3a003dff07004f05be004f04be00bd
:040ba000000006004b
:020000040000fa
:100ba400ffff0000ffff0000ffff0000ffff000049
:100bb400ffff0000ffff0000ffff0000ffff000039
:100bc400ffff0000ffff0000ffff0000ffff000029
:100bd400ffff00007f3f00003f3f00003f3f000059
:100be4003f3f00003f3f00003f7f00007fff0000c9
:100bf400ffff00003f3f00003f3f00003f3f000079
:100c04003f3f00003f3f00003f3f00007fff0000e8
:100c1400ffff0000ffff00003f3f00003f3f0000d8
:100c24003f3f00003f3f00003fff0000ffff000088
:100c3400ffff0000ffff0000ff7f00007f3f000078
:100c44003f3f00003f3f00003f3f00003f3f0000a8
:100c54003f7f0000ffff0000ffff00003f3f000058
:100c64003f3f00003f3f00003f3f00003f3f000088
:100c74003f3f0000ffff0000ffff0000ffff0000f8
:100c8400ffff0000ffff0000ffff0000ffff000068
:100c9400ffff0000ffff0000ffff0000ffff000058
:100ca400ffff0000ffff0000ffff0000ffff000048
:100cb400ffff0000ffff0000ffff0000ffff000038
:100cc400ffff0000ffff0000ffff0000ffff000028
:100cd400fffe0000f8e00000c0c000008002000039
:100ce4001e3e00003c38000038380000383b00004d
:100cf4007fff0000fff800008000000000000000fb
:100d04000e7e00007e300000000000000080000025
:100d1400dfff0000ff1f00000000000000c0000013
:100d2400fefc00000000000000030000ffff0000c4
:100d3400ffff0000ff7f0000000000000000000033
:100d4400e0fe0000ffff0000fff80000f8f80000dc
:100d5400f8fe0000ff3f0000070000000000000054
:100d6400808800008e8f0000cfff0000ffff00008e
:100d7400ffff0000ffff0000ffff0000ffff000077
:100d8400ffff0000ffff0000ffff0000ffff000067
:100d9400ffff0000ffff0000ffff0000ffff000057
:100da400ffff0000ffff0000ffff0000ffff000047
:100db400ffff0000ffff0000ffff0000ffff000037
:100dc400ffff0000ffff0000ffff0000ffff000027
:100dd400ffff0000ffff0000ffff0000fbf3000027
:100de400e3e30000e3e70000efee0000e0e00000d2
:100df400e0f10000ffff0000fffc0000e0e0000065
:100e0400e0e00000fefe0000fefe0000ffff000028
:100e1400ffff0000efe00000e0e00000e0fc000065
:100e2400fcfc0000f8e00000e0e00000e0ff00004f
:100e3400ffff0000fff00000e0e00000e0e600003b
:100e4400e7e70000e3e00000f0f80000fcff00002a
:100e5400ffef0000e1e00000e0e00000e4e7000054
:100e6400e7e70000e7f70000ffff0000ffff0000d6
:100e7400ffff0000ffff0000ffff0000ffff000076
:100e8400ffff0000ffff0000ffff0000ffff000066
:100e9400ffff0000ffff0000ffff0000ffff000056
:100ea400ffff0000fffd0000f9f10000e1c10000b8
:100eb400830700000f1f00003df90000f1c100008e
:100ec400830700000f0f00001d3100002101000006
:100ed40001030000071f00007df90000f1e100009c
:100ee400c1030000071f00003f7f0000ffc1000096
:100ef40001010000010100007fff0000ffff00006e
:100f0400ff0100000101000001e100008101000077
:100f1400010700003fff0000ffff0000ffff00008b
:100f24000101000001e10000f9f90000f9010000ed
:100f34000101000001030000ffff0000ffff0000ab
:100f44000f01000001010000016100007979000037
:100f540079f90000f9f90000f9fd00003f0f0000e5
:100f64000301000001c10000f179000039190000fb
:100f74008181000081e10000f37f00003f1f000039
:100f84000f07000043630000f1f90000f9d90000e5
:100f9400c9c10000c1e10000f1fb0000ffff000037
:100fa400ffff0000ffff0000ffff0000ffff000045
:100fb400ffff0000fefc0000f8f00000e1c30000a9
:100fc400c7cf0000defc0000f8f00000e0c0000025
:100fd400c0cc0000f8f00000f0e00000c3cf000037
:100fe400dfff0000fefc0000f8f00000e0c100009c
:100ff400c0c00000c0c00000c0ff0000ffff000030
:10100400ffc00000c0c00000c0f70000f7f60000f9
:10101400f0c00000c0c10000cfff0000ffff0000cf
:10102400c0c00000c0cf0000cfcf0000c1e000006e
:10103400e0f00000f0ff0000ffff0000e700000008
:1010440080e00000e02800009fdf0000df6f000068
:101054007fff0000ffff0000f3900000c0f00000dd
:10106400fcfe0000cee60000c0e00000f0fd000041
:10107400ff7f000067670000676700006eee0000f6
:10108400eee60000e2f00000f0f80000fcff0000d3
:10109400ffff0000ffff0000ffff0000ffff000054
:1010a400ffff0000ffff0000ffff0000ffff000044
:1010b400ffff0000ffff0000ffff0000ffff000034
:1010c400ffff0000ffff0000ffff0000ffff000024
:1010d400ff0f00000fff0000ffff0000ffff0000f4
:1010e400ffbf00000f0f0000ffff0000ff0f000014
:1010f40007e70000f3f30000f7e70000ffff00003c
:10110400ff030000037b00007b7b000033830000af
:10111400c7ff0000ffff0000ffff0000ffff00000b
:10112400ff00000098bc00009c9e0000feff000031
:10113400ff0f0000c7f30000f3f7000007000000f2
:10114400ffff0000ff030000fbff0000f9010000a7
:1011540000f90000fdff00007f010000ffff000018
:10116400070100007c7e00007e1c000080ff000060
:10117400ff000000fcfe0000ff8e000080ff000066
:10118400ffff0000ffff0000ffff0000ffff000063
:10119400ffff0000ffff0000ffff0000ffff000053
:1011a400ffff0000ffff0000ffff0000ffff000043
:1011b400ffff0000ffff0000ffff0000ffff000033
:1011c400ffff0000ffff0000ffff0000ffff000023
:1011d400ff00000000ff0000ffff0000ffff000011
:1011e4007f00000000fc0000ffff00007f7e000085
:1011f4007c7800007831000001c30000ffff00008c
:10120400ff80000080be00009e9e00009ec400007f
:10121400e0ff0000ffff0000ffff0000ffff0000f1
:10122400e0e00000e7e70000e7e70000f7ff000068
:10123400fff00000f1f30000f3f90000f8f80000fb
:10124400ffff0000f8f80000ffff0000fffc0000b3
:10125400fcfd0000feff0000fefe0000ffff00009a
:10126400fffe0000fefe0000ffff0000ffff000085
:10127400ffff0000ffff0000ffff0000ffff000072
:10128400ffff0000ffff0000ffff0000ffff000062
:10129400ffff0000ffff0000ffff0000ffff000052
:1012a400ffff0000ffff0000ffff0000ffff000042
:1012b400ffff0000ffff0000ffff0000ffff000032
:1012c400ffff0000ffff0000ffff0000ffff000022
:1012d400fffe0000fcfc0000f8fd0000fcfc000028
:1012e400fcfe0000ffff0000ffff0000fffe000007
:1012f400fefe0000feff0000ffff0000ffff0000f5
:10130400ffff0000ffff0000ffff0000ffff0000e1
:10131400ffff0000ffff0000ffff0000ffff0000d1
:10132400ffff0000ffff0000ffff0000ffff0000c1
:10133400ffff0000ffff0000ffff0000ffff0000b1
:10134400ffff0000ffff0000ffff0000ffff0000a1
:10135400ffff0000ffff0000ffff0000ffff000091
:10136400ffff0000ffff0000ffff0000ffff000081
:10137400ffff0000ffff0000ffff0000ffff000071
:10138400ffff0000ffff0000ffff0000ffff000061
:10139400ffff0000ffff0000ffff0000ffff000051
:1013a400ffff0000ffff0000ffff0000ffff000041
:1013b400ffff0000ffff0000ffff0000ffff000031
:1013c400ffff0000ffff0000ffff0000ffff000021
:1013d400ffff00007f3f00003f3f00003f3f000051
:1013e4003f3f00003f3f00003f7f00007fff0000c1
:1013f400ffff00003f3f00003f3f00003f3f000071
:101404003f3f00003f3f00003f3f00007fff0000e0
:10141400ffff0000ffff00003f3f00003f3f0000d0
:101424003f3f00003f3f00003fff0000ffff000080
:10143400ffff0000ffff0000ff7f00007f3f000070
:101444003f3f00003f3f00003f3f00003f3f0000a0
:101454003f7f0000ffff0000ffff00003f3f000050
:101464003f3f00003f3f00003f3f00003f3f000080
:101474003f3f0000ffff0000ffff0000ffff0000f0
:10148400ffff0000ffff0000ffff0000ffff000060
:10149400ffff0000ffff0000ffff0000ffff000050
:1014a400ffff0000ffff0000ffff0000ffff000040
:1014b400ffff0000ffff0000ffff0000ffff000030
:1014c400ffff0000ffff0000ffff0000ffff000020
:1014d400fffe0000f8e00000c0c000008002000031
:1014e4001e3e00003c38000038380000383b000045
:1014f4007fff0000fff800008000000000000000f3
:101504000e7e00007e30000000000000008000001d
:10151400dfff0000ff1f00000000000000c000000b
:10152400fefc00000000000000030000ffff0000bc
:10153400ffff0000ff7f000000000000000000002b
:10154400e0fe0000ffff0000fff80000f8f80000d4
:10155400f8fe0000ff3f000007000000000000004c
:10156400808800008e8f0000cfff0000ffff000086
:10157400ffff0000ffff0000ffff0000ffff00006f
:10158400ffff0000ffff0000ffff0000ffff00005f
:10159400ffff0000ffff0000ffff0000ffff00004f
:1015a400ffff0000ffff0000ffff0000ffff00003f
:1015b400ffff0000ffff0000ffff0000ffff00002f
:1015c400ffff0000ffff0000ffff0000ffff00001f
:1015d400ffff0000ffff0000ffff0000fbf300001f
:1015e400e3e30000e3e70000efee0000e0e00000ca
:1015f400e0f10000ffff0000fffc0000e0e000005d
:10160400e0e00000fefe0000fefe0000ffff000020
:10161400ffff0000efe00000e0e00000e0fc00005d
:10162400fcfc0000f8e00000e0e00000e0ff000047
:10163400ffff0000fff00000e0e00000e0e6000033
:10164400e7e70000e3e00000f0f80000fcff000022
:10165400ffef0000e1e00000e0e00000e4e700004c
:10166400e7e70000e7f70000ffff0000ffff0000ce
:10167400ffff0000ffff0000ffff0000ffff00006e
:10168400ffff0000ffff0000ffff0000ffff00005e
:10169400ffff0000ffff0000ffff0000ffff00004e
:1016a400ffff0000fffd0000f9f10000e1c10000b0
:1016b400830700000f1f00003df90000f1c1000086
:1016c400830700000f0f00001d31000021010000fe
:1016d40001030000071f00007df90000f1e1000094
:1016e400c1030000071f00003f7f0000ffc100008e
:1016f40001010000010100007fff0000ffff000066
:10170400ff0100000101000001e10000810100006f
:10171400010700003fff0000ffff0000ffff000083
:101724000101000001e10000f9f90000f9010000e5
:101734000101000001030000ffff0000ffff0000a3
:101744000f0100000101000001610000797900002f
:1017540079f90000f9f90000f9fd00003f0f0000dd
:101764000301000001c10000f179000039190000f3
:101774008181000081e10000f37f00003f1f000031
:101784000f07000043630000f1f90000f9d90000dd
:10179400c9c10000c1e10000f1fb0000ffff00002f
:1017a400ffff0000ffff0000ffff0000ffff00003d
:1017b400ffff0000fefc0000f8f00000e1c30000a1
:1017c400c7cf0000defc0000f8f00000e0c000001d
:1017d400c0cc0000f8f00000f0e00000c3cf00002f
:1017e400dfff0000fefc0000f8f00000e0c1000094
:1017f400c0c00000c0c00000c0ff0000ffff000028
:10180400ffc00000c0c00000c0f70000f7f60000f1
:10181400f0c00000c0c10000cfff0000ffff0000c7
:10182400c0c00000c0cf0000cfcf0000c1e0000066
:10183400e0f00000f0ff0000ffff0000c7c0000060
:10184400c0c00000c0c80000dfdf0000dfef000000
:10185400ffff0000ffcf0000e3e00000e0f0000025
:10186400fcfe0000cee60000c0e00000f0fd000039
:10187400ffff0000e7e70000e7e70000ceee00000e
:10188400eee60000e2f00000f0f80000fcff0000cb
:10189400ffff0000ffff0000ffff0000ffff00004c
:1018a400ffff0000ffff0000ffff0000fdf9000044
:1018b400f1e10000c30700000f3d000071e10000ea
:1018c400c18300000f1f000079e100008080000048
:1018d4000839000039610000c38300008fbf000095
:1018e400f9e100008101000009390000f9e100007c
:1018f4000103000007ff0000ffff0000ffff0000de
:10190400ffff0000f90100000101000019f90000c7
:10191400f9f90000f9ff0000ff01000001010000d7
:1019240081f90000f90100000101000083ff0000bb
:101934007f03000001010000e1fd0000fff9000049
:101944007909000001010000c1f90000f9f9000063
:10195400791f000007010000c1f10000390f0000e9
:1019640007830000c1f1000039190000088000005d
:10197400c0610000390f000087030000010100006e
:10198400c17100003d1f00008fc30000e1f10000a1
:10199400f9fd0000ffff0000ffff0000ffff000053
:1019a400ffff0000ffff0000ffff0000ffff00003b
:1019b400ffff0000ffff0000fefc0000f8f0000045
:1019c400e1c700000e1c000038e00000c3870000df
:1019d4001f3e00006ecc00008818000071e3000078
:1019e400e38700000f3e0000f8c000000004000080
:1019f4003cf80000e0830000071f0000ffff000028
:101a0400ffff0000ffff0000c0000000007c00009a
:101a1400fcfc0000fcff0000ff00000000000000d0
:101a2400ffff00001f00000000e00000ff1f000097
:101a340000000000e0fe0000ffff00001f030000a4
:101a440000e00000f8ff0000ff1f00000781000015
:101a5400c07000001c0f000083e00000703c000018
:101a64000e870000c1600000388c0000c6e300004f
:101a7400701800000602000080c00000e0f10000c1
:101a8400f8fc0000feff0000ffff0000ffff000065
:101a9400ffff0000ffff0000ffff0000ffff00004a
:101aa400ffff0000ffff0000ffff0000ffff00003a
:101ab400ffff0000ffff0000ffff0000ffff00002a
:101ac400ffff0000fffe0000fcfc0000f9f900002d
:101ad400f8f80000f8fd0000fffe0000fcfc000028
:101ae400f9f90000f8f80000f8ff0000fffc00001e
:101af400f8f80000f9f90000f8f80000ffff000012
:101b0400ffff0000ffff0000fff80000f8f80000ee
:101b1400f9f90000f9ff0000fff80000f8f80000f0
:101b2400f9f90000f8fc0000feff0000fbf80000db
:101b3400f8fe0000ffff0000fbf80000f8fc0000c6
:101b4400ffff0000fffb0000f8f80000feff0000ac
:101b5400fff80000f8f80000f9f90000fcfe0000ae
:101b6400fffb0000f8fc0000feff0000fbf9000092
:101b7400f8fc0000feff0000ffff0000ffff000074
:101b8400ffff0000ffff0000ffff0000ffff000059
:101b9400ffff0000ffff0000ffff0000ffff000049
:101ba400ffff0000ffff0000e7870000071f0000a1
:101bb400ffff0000ffff0000ffff0000ffff000029
:101bc400ffff0000ffff0000ffff0000ffff000019
:101bd400ffff0000ffff0000ffff0000ffff000009
:101be400ffff0000ffff0000ffff0000ffff0000f9
:101bf400ffff0000ffff0000ffff0000ffff0000e9
:101c0400ffff0000ffff0000ffff0000ffff0000d8
:101c1400ffff0000ffff0000ffff0000ff070000c0
:101c240007070000ffff0000ffff0000ffff0000a8
:101c3400ffff0000ffff0000ffff0000ffff0000a8
:101c4400ff07000007870000ffff00001f070000d8
:101c540007070000e7ff0000ff1f000007c70000a0
:101c6400ffff0000ffff0000ffff0000ffff000078
:101c7400ffff0000ffff0000ffff0000ffff000068
:101c8400ffff0000ffff0000ffff0000ffff000058
:101c94001f07000087f70000ffff0000ffff0000a0
:101ca400ffff0000ffff0000ffff0000fce000005a
:101cb400800700001fff0000ffff0000ffc10000bd
:101cc40000100000f8f10000030700003fff0000cf
:101cd4008100000030f10000e10300000ffe00006d
:101ce400e000000001f00000f0010000033f0000ec
:101cf400ffc3000001000000f8f000000103000031
:101d0400ffff00000000000011f10000f0000000df
:101d140001ff0000ff01000000f00000f9000000d6
:101d240000000000ff0f000001010000f8f80000af
:101d340001010000ffff0000ffff0000ffff0000a3
:101d4400ff00000000ff00003f010000c000000091
:101d540000800000ff0f000000e00000fc7f000096
:101d640007010000f1f8000000000000c1ff0000be
:101d74001f03000080f000007101000000e000007b
:101d84007f0f000001e10000f03800000180000036
:101d9400f0fe0000ffff0000ffff0000ffff000057
:101da400ffff0000ffff0000ffff0000ffff000037
:101db400fffc0000e0800000073f0000ffff000080
:101dc400fef000008003000063e00000e023000058
:101dd4003ff80000800300003ffe0000c000000048
:101de4001ffc0000800100003fff0000e000000035
:101df4000fff0000fe0e000003e10000f0000000f1
:101e040000ff0000fe00000000ff0000fffc0000d7
:101e1400fcff0000ff00000000ff0000ff000000c6
:101e240000f00000ff00000000f00000ff3f000091
:101e340000000000ffff0000ffff0000ffff0000a4
:101e44001f00000000030000c0fe00001f0000008f
:101e5400000f000000f00000feff00001f0e000055
:101e6400c6e3000011000000c0fc00001f010000d8
:101e7400c0fc0000ffff0000fcfc00001f0300008a
:101e8400c0f800003f07000080f00000feff0000e3
:101e9400ffff0000ffff0000ffff0000ffff000046
:101ea400ffff0000ffff0000ffff0000ffff000036
:101eb400ffff0000ffff0000fce00000818700003e
:101ec4008f8f00008fbc0000e0c300008f8c0000e7
:101ed40080810000fffc0000e0c300008f8c000044
:101ee40080810000fff8000080870000fff80000f8
:101ef40080830000fff80000808700008fcc000082
:101f040080830000fff8000080870000ffff0000ce
:101f1400ffff0000ffe00000808f00008fc0000082
:101f240080ff0000ffe00000808f00008f80000031
:101f3400c0fe0000ffff0000ffff0000ffff0000e5
:101f44008080000080fc0000ffff00008080000013
:101f540080f00000ffff0000ff80000080ce000042
:101f6400af810000e0fe00008f800000e0fe000072
:101f7400ffff0000ffff00008780000080ce00000c
:101f840087810000f0fe0000ffff0000ffff00005b
:101f9400ffff0000ffff0000ffff0000ffff000045
:101fa400ffff0000ffff0000ffff0000ffff000035
:101fb400ffff0000ffff00001f03000003e3000019
:101fc400ff7f00001f03000003e30000ffff000089
:101fd4007f7f0000ffff0000ff7f00007fff000005
:101fe400ff7f0000ffff00007fff0000ff7f000075
:101ff400ffff00007f430000e3ff0000ff7f0000bd
:102004007fff0000ffff00005f430000ffff0000b0
:10201400ff7f00007fff0000ffff0000ffff0000c4
:10202400ff030000030300003fff0000ff03000064
:10203400030300007fff0000ffff00007f7f00001c
:10204400ffff0000ff7f00007fff00007fff000014
:10205400ffff0000ff7f00007fff0000ffff000084
:10206400ffff00007f7f0000ffff0000ff7f0000f4
:102074007fff00007fff0000ffff0000ff7f0000e4
:102084007fff0000ffff0000ffff0000ffff0000d4
:10209400ffff0000ffff0000ffff0000ffff000044
:1020a400ffff0000ffff0000ffff0000ffff000034
:1020b4007f1f0000c330000002e000003e8f0000dc
:1020c400c108000082f000003f070000e1f80000b2
:1020d4000c800000f83f000003e00000fe0f000049
:1020e40000f800007f030000c0f8000018000000a2
:1020f400f83f000000f00000ff030000c0fc0000f7
:102104003c000000ffff000000800000ff0300000f
:1021140000fc0000fc00000003ff0000ffff0000c3
:10212400fffe000000f80000001f0000ff00000098
:10213400e080000000ff0000ff00000038fc000009
:10214400c0030000fff8000000180000f8e00000e1
:10215400037f0000f80000001cfc0000e007000002
:102164003ff00000001c0000f8e10000073e000002
:10217400f08100001cf80000e10700003ff00000bf
:10218400801c0000f8e10000073f0000ffff000092
:10219400ffff0000ffff0000ffff0000ffff000043
:1021a400ffff0000ffff0000ff7f00001fc30000cf
:1021b400f83e000003000000c4f100001e0300000c
:1021c400e07c00000f870000e37100000080000045
:1021d400f81f000003e00000fe1f000001e0000003
:1021e400ff07000000f80000ffff0000feff0000f2
:1021f4000f000000f87f000000800000ff7f000057
:102204000ece0000ff03000000ff0000ff000000ee
:10221400c0ff00003f000000ffff0000ffff0000c0
:10222400ffff000000ff0000fc0000000f000000a2
:10223400ffff000000070000ffff00000361000033
:10224400f0c00000007f0000fc00000007ff000059
:10225400fefe0000fffe0000c00300003ffe000081
:10226400ce0f00007fff000003010000f0e000003b
:10227400031f0000f8c00000077f0000f881000081
:102284000f7c0000e00700001ff80000e0070000da
:102294003fff0000ffff0000ffff0000ffff000002
:1022a400ffff0000ffcf0000c3f00000fedf0000ce
:1022b400c3e00000f8ff0000c7c00000f8ff000002
:1022c400c3c00000c0e70000c3c00000f8ff000066
:1022d400c1c00000e6c70000c1c00000fedf00006e
:1022e400c0c00000ffff0000ffff0000ffc30000ac
:1022f400c0fc0000ffe00000c0c70000c7c0000031
:10230400f0ff0000dfc00000c0ff0000f0c00000cc
:10231400c7c70000c0e00000ffff0000ffff00008f
:10232400ffff0000c0ff0000ffff0000c0c000006e
:10233400ffff0000c0c00000dfff0000e0c000009d
:10234400c7c70000f0c00000fffe0000c0c10000cd
:10235400ffff0000ffff0000fff80000e0c70000df
:10236400c7c00000c0ff0000fff00000c1c70000ac
:10237400c7f80000c1cf0000fcc00000c3df0000ac
:10238400fce00000c3df0000f8f00000e3c7000039
:10239400c0c00000c7ff0000ffff0000ffff0000f7
:1023a400000000000000000000000000002f0000fa
:1023b40000000000000700000007000000140000f7
:1023c4007f1400007f140000242a00007f2a0000ec
:1023d4001223000013080000646200003649000064
:1023e400552200005000000005030000000000001a
:1023f400001c0000224100000000000041220000f7
:102404001c000000140800003e080000140800002e
:10241400083e00000808000000000000a060000062
:102424000008000008080000080800000060000020
:1024340060000000002000001008000004020000fa
:102444003e510000494500003e000000427f00006c
:102454004000000042610000514900004621000094
:10246400414500004b31000018140000127f0000a9
:102474001027000045450000453900003c4a000093
:102484004949000030010000710900000503000003
:102494003649000049490000360600004949000059
:1024a400291e000000360000360000000000000075
:1024b400563600000000000008140000224100000d
:1024c4000014000014140000141400000041000063
:1024d4002214000008020000015100000906000057
:1024e40032490000595100003e7c000012110000e6
:1024f400127c00007f49000049490000363e00007c
:1025040041410000412200007f41000041220000bf
:102514001c7f000049490000494100007f09000078
:1025240009090000013e000041490000497a000009
:102534007f080000080800007f000000417f0000c1
:102544004100000020400000413f0000017f0000e6
:1025540008140000224100007f40000040400000b9
:10256400407f0000020c0000027f00007f04000096
:10257400081000007f3e000041410000413e000081
:102584007f09000009090000063e000041510000d7
:10259400215e00007f090000192900004646000062
:1025a4004949000049310000010100007f01000099
:1025b400013f000040400000403f00001f20000099
:1025c400402000001f3f000040380000403f000052
:1025d4006314000008140000630700000870000082
:1025e4000807000061510000494500004300000055
:1025f4007f4100004100000055aa000055aa0000d8
:1026040055000000414100007f000000040200006a
:10261400010200000440000040400000404000006f
:1026240000030000050000000020000054540000d6
:10263400547800007f48000044440000383800000b
:102644004444000044200000384400004448000092
:102654007f3800005454000054180000087e000025
:102664000901000002180000a4a40000a47c0000da
:102674007f0800000404000078000000447d00008e
:102684004000000040800000847d0000007f0000c6
:102694001028000044000000004100007f400000ba
:1026a400007c000004180000047800007c0800008e
:1026b400040400007838000044440000443800005a
:1026c400fc24000024240000181800002424000026
:1026d40018fc00007c080000040400000848000006
:1026e4005454000054200000043f00004440000003
:1026f400203c000040400000207c00001c20000022
:10270400402000001c3c000040300000403c000021
:102714004428000010280000441c0000a0a0000071
:10272400a07c000044640000544c000044000000fd
:10273400107c00008200000000000000ff00000088
:1027440000000000827c0000100000000006000071
:102754000909000006000000486f00006c610000d9
:042764000000000071
:020000040000fa
:102768000000fa00c022ef003116800000fe2f00a2
:102778000080600030168800ec030700f0c3b30047
:10278800bd030700f2030700f0c3b300ba03070054
:10279800a000200028040700e403070000ccb300d1
:1027a800b5030700ea03070000ccb300b203070033
:1027b8000040eb00830207005b0207002082200034
:1027c8008040eb00014878003082200081cbb300c4
:1027d800014878004082200001c4b3000148780015
:1027e8000040eb00770207000080fa0000000600b6
:1027f8000400fa00204798000040eb00004f7800e2
:102808002082200010407800e14f500007003a0075
:1028180040822000104078000080fb00e500400066
:10282800f0072000808f500003003c002e409000ed
:10283800ea4f500001003a008a0207002e4090003b
:10284800ea4f50002d003200ae40900000ceb30099
:1028580000c0400020479800010037000000000039
:1028680020822000104078000004e00007003a00b1
:10287800408220009040780000c8b30080cf50000c
:1028880002003a0010c0b3004e0207002e4090002c
:102898000080fb001e81fb006500b9000000780085
:1028a80002004000211d290061417800124798006c
:1028b8001e409000850307004082200010407800e9
:1028c8008040e80040822000014878001e4fe80060
:1028d8001e407800e54f5000e0ff3a000040eb0052
:1028e8007a03070040822000104078008040e8000a
:1028f8004082200001487800000000000080fa00b3
:10290800000006000200fa00000f780004003700fb
:102918001e007800104078001e0fe800b4ff070082
:102928001e007800104078000004e000f8ff3a002c
:102938000080fa00000006001400fa00889fbe001c
:10294800404f980072079800030f9800215798008d
:102958000040eb00004f78004e489000e24f5000d6
:1029680026003a00210037002e5090000080fb001e
:102978000000e900110020000008dd006101b90035
:102988007e0090008e089000020278000301780013
:1029980080017800010078000302620000006100f5
:1029a8008000eb00c000dd00000020000001be0038
:1029b8006120b800000171008181710002807100fe
:1029c80000f0a7000000ea000000ea004f00de0067
:1029d800004f780001c3b3001ec0400084ff070009
:1029e8002e5090000040e900205798002e5090008b
:1029f8000004e000dcff3a005e0037007e00900033
:102a08008e089000e00f5000e08f58000e003a004a
:102a18000040eb00004f78000300370000c3b3000c
:102a280073ff07001e4fe8002e5090009e4078006c
:102a380080cf50004f0031001e407800e94f500011
:102a4800f6ff36004b0037000040eb00004f7800df
:102a58002d0037007e0090008e089000e00f500097
:102a6800e08f58001d0032001e84fb007e0090009d
:102a7800804478004e4890000080fb008000eb0006
:102a88000001be007e0090008e08900004f8070048
:102a980000407800ce4890008180fb000088b90093
:102aa800000078000040780080c05400080047000b
:102ab800114098004e4890000080fb008000eb0019
:102ac8000001be007e0090008e089000f4f7070019
:102ad80070079800010f98000a0037002e509000e8
:102ae800e14f4000200032002e509000ea4f500085
:102af8001d003e001e80fb00000047008040eb00e8
:102b0800114098001e4fe8002e5090009e4078001b
:102b180080cf5000cfff3900130037001e80fb0024
:102b28000000e9000000470010409000e94f500005
:102b3800060036001e80fb000000e9000000470088
:102b4800104090007043b000050037001e80fb0065
:102b58000000e90000004700104090000043b0006a
:102b680023ff07001e4fe9001e4078000004e00024
:102b7800eaff3a004f04be000080fa000000060099
:102b88000800fa0020079800310798002e009000ee
:102b9800be0090001ef70700008fbe0080c0eb004b
:102ba8001e01be00a0c0b30063ff0700e0c2b3006f
:102bb8000fff07001e00be0030f707000001be002f
:102bc8002e009000be009000b3f607002007980082
:102bd8003107980002402200439724002e009000fd
:102be800be0090007af7070009f70700008fbe00c3
:102bf80080c0eb001e01be00a0c0b3004eff07005e
:102c08000080fa00000006001800fa00680057006b
:102c180010079800ceb89700010f78003c013700e4
:102c28001e00780010417800224f9800ae489000ae
:102c380050c2b30080cf50002e013a001e0fe800aa
:102c48001e00780090417800234f9800ae4890000d
:102c5800f0c2b30080cf50001d003400ae48900091
:102c680090c3b30080cf500019003c000040eb0037
:102c7800304f98000d0037003e4890006a00b900b8
:102c880000007800804078002e48900080c0400006
:102c980000cdb30000c04000304f98001e0fe80080
:102ca8001e00780090407800214f9800ae489000b0
:102cb800f0c2b30080cf500008003400ae48900046
:102cc80090c3b30080cf5000ebff340004003700fe
:102cd80000c0eb00304f98000100370000000000f2
:102ce8002e4890000000fb006101b900b0fd2f00e4
:102cf800f1ff2f00020040008380480032052000c9
:102d080003002000820f5000838f5800fc003e0013
:102d180000600100f4003700fb003700fa003700bc
:102d2800f9003700f8003700f7003700f6003700e1
:102d3800f5003700f4003700f3003700f2003700e1
:102d4800f1003700f0003700ef003700ee003700e1
:102d5800ed003700ec003700eb003700ea003700e1
:102d6800e9003700e8003700e7003700e6003700e1
:102d7800e5003700e4003700e3003700e2003700e1
:102d8800e1003700e0003700b000370035003700b9
:102d980051003700dc003700be003700da0037008a
:102da800d9003700d8003700d7003700d6003700e1
:102db800d5003700d4003700d3003700d2003700e1
:102dc800d1003700d0003700cf003700bc003700f3
:102dd800cd00370066003700cb003700ca00370047
:102de8007c003700c8003700c7003700c60037002e
:102df800c5003700c4003700c3003700c2003700e1
:102e0800c1003700c00037007f00370015003700c9
:102e18001d003700bc0037009e003700ba0037009d
:102e2800b9003700b8003700b7003700b6003700e0
:102e3800b5003700b4003700b3003700b2003700e0
:102e4800b1003700b0003700af0037009c003700f2
:102e5800ad0037003a003700ab003700aa00370052
:102e6800500037001e0090000080e900100798000d
:102e78001e00900010007800204f98002e48900007
:102e88005bfe0700a10037001e0090000080e900eb
:102e9800100798001e009000100178002207980083
:102ea8002e0090000000e00005003d002e0090007c
:102eb8000000ea0020079800d0c2b3004cfe0700cb
:102ec8002e0090006101b900be489000a0c0b30078
:102ed80099fe07008d0037001e0090006400500026
:102ee800100798001e0090001001be0032079800dd
:102ef800430798003e009000ce009000e00f50007d
:102f0800e08f580008003d003e009000ce00900081
:102f180060001000e0801800300798004107980012
:102f2800d0c2b30032fe07003e019000ce019000ef
:102f3800be489000a0c0b3007ffe070073003700b2
:102f48001e0090000080e900100798001e00900005
:102f580010007800600798006e0090006101b800ca
:102f6800be489000a0c0b30073fe0700670037009a
:102f78001e00900064005000100798001e0090008a
:102f88001001be0072079800030f9800be48900019
:102f98007e0190008e099000a0c0b30066fe070075
:102fa8005a0037001e0090000080e90010079800c2
:102fb8001e00900010007800600798006e009000d6
:102fc8006101b800be48900000c1b3005afe070076
:102fd8004e0037001e009000640050001007980053
:102fe8001e0090001001be0072079800030f9800a1
:102ff800be4890007e0190008e09900000c1b30089
:103008004dfe0700410037001e0090000080e900d7
:10301800100798001e0090001000780060079800c4
:103028003e489000e14f400002003a0000c1b30062
:10303800304f98006e0090006101b800be489000c3
:1030480020c0b3003cfe0700300037001e0090008f
:1030580064005000100798001e0090001001be0088
:1030680072079800030f98003e489000e14f400017
:1030780002003a0000c1b300304f9800be489000eb
:103088007e0190008e09900020c0b3002afe070040
:103098001e0037001e0090006400500010079800c2
:1030a8001e0090001001be00120f9800230f980018
:1030b8001e089000ae089000b1fe0700130037000c
:1030c8001e0090000080e900100798001e00900084
:1030d80090017800330f98003e08900009fe070021
:1030e800000000000900370050c2b300c0fd07000f
:1030f800060037002e489000bdfd0700030037008a
:103108000000000001003700000000001e0fe8006a
:103118001e007800104078000004e000c0fe3a006d
:103128000080fa00000006000200fa000040eb00f0
:10313800004f78001c0037007c01070000c4b30072
:103148004d01070080cbb3001e4040004a01070034
:103158000040eb00104798000f0037009e40900099
:1031680000c4b30080cf500006003a007801070081
:1031780000c4b3004001070080cbb3001e404000ec
:103188003d0107000040eb00500107001e40900081
:103198000040e800104798001e4090000004e0003e
:1031a800eeff3d001e4fe8001e407800e74f50003c
:1031b800e1ff36000040eb001d0007000080fa0028
:1031c800000006000200fa00004f78001e40780058
:1031d8000004e000030032001e407800e14f500078
:1031e80011003a001e4078000004e00002003a0096
:1031f8004e0107000100370055010700208220001a
:103208001e4878004082200001c4b30001487800bd
:10321800308220001040780017010700408220000b
:1032280010407800140107000080fa000000060032
:103238000200fa00004f78001e407800e74f500067
:1032480006003e0080cbb3009e4040003082200044
:10325800014878000040eb00daff07000080fa0020
:10326800000006000000fa003082200010407800bc
:103278008040e80030822000014878003082200039
:1032880090407800f0cbb30080cf500003003600a8
:103298003082200081cbb300014878000040eb0069
:1032a800c8ff07000080fa00000006000400fa00ca
:1032b80020479800314798002e409000e74f500073
:1032c80028003e00be40900000c8b30080cf5000e8
:1032d80024003e003e4090000080fb004600de00d7
:1032e800004f78003e4090008080fb00f0032000f3
:1032f80000017800110009008280d8008000fd00dc
:10330800304798001e4078000004e00002003a00b0
:1033180006010700010037000d0107002082200088
:103328001e487800ae40900080cbb30080c070008b
:1033380030822000014878003e40900080407800ac
:103348000164a000408220000148780040822000eb
:1033580010407800c8000700308220001040780034
:10336800c50007000080fa00000006000400fa000b
:10337800100798000040eb00004f7800200037004d
:10338800ea00070000c4b300bb00070080cbb3000d
:103398001e404000b80007000040eb0010479800ae
:1033a800130037009e40900000c4b30080cf500047
:1033b80006003a00e600070000c4b300ae000700ac
:1033c80080cbb3001e404000ab0007001e009000f9
:1033d800104078009e0090008100e80011079800d6
:1033e800ba0007001e4090000040e800104798000f
:1033f8001e4090000004e000eaff3d001e4fe80078
:103408001e407800e74f5000ddff36000080fa00cc
:10341800000006000800fa0060479800714798000d
:103428006e409000e34f50004d003e00fe4090007b
:1034380040c6b30080cf500049003e00ee409000e7
:10344800500020000008dd00304798003e40900002
:1034580068404000804078000040eb0093ff070080
:103468007e4090000081fb008001eb0031c0b3007a
:10347800a0c0b30030fd07007e4090000080fb0034
:103488000000d100704798007e4090000080fb004b
:103498004300de004047980071c0b3004e409000e2
:1034a80000c050005047980010c0b300004f78008b
:1034b800280037003e4090006c4040008040780073
:1034c8001e40780079ff07005e4090009e4078001b
:1034d80080cf5000030031000040eb0020479800e7
:1034e800100037005e4090009e40780080cf50006a
:1034f8000a003a007e40900067406000204798002c
:103508002e4090000080fb0068001000f10f2000a2
:103518000008dd00204798000200370000c0eb00db
:10352800204798000040eb0010479800050037003e
:103538002e409000650007001e4090000040e80003
:10354800104798001e409000eb4f5000f8ff3600df
:103558001e4fe8001e407800e74f5000d5ff3600a8
:103568000080fa00000006000400fa0020479800d6
:10357800314798002e409000004040000040e8008d
:10358800104798002e409000e34f500032003e0054
:10359800be40900040c6b30080cf50002e003e00d1
:1035a8000040eb0007ff07008040eb001e40900042
:1035b8003eff07000040eb00004f7800090037008d
:1035c80000c4b3009e40780080cf500002003a004b
:1035d80010c0b300fbfe070000c0eb003b00070073
:1035e8001e4fe8003e4090009e40780080cf50007b
:1035f800f3ff3900be409000014f78000900370002
:1036080000c4b3009e40780080cf500002003a000a
:1036180010c0b300ebfe07000040eb002b000700d2
:103628001e4fe80030c6b3009e40780080cf50009f
:10363800f3ff360091c6b3001e4090001bff070041
:103648003e4090000081fb008001eb0031c0b300d8
:10365800a0c0b300b8fc07000080fa000000060014
:103668000000fa005082200080c0eb00014878007a
:103678000080fa00000006000200fa00004f7800ff
:103688003c0007001e80fb002016880050168000b2
:103698000000a10050168800501680000010a100fc
:1036a80050168800501680000020a0005016880090
:1036b8001000200057000700501680000020a100cd
:1036c800501688000080fa00000006000200fa0088
:1036d800004f780027000700508220001040780033
:1036e8001e4068000080fb002016880050168000ed
:1036f8000000a00050168800501680000010a1009d
:1037080050168800501680000020a000501688002f
:10371800100020003f000700501680000020a10084
:10372800501688000080fa00000006000000fa0029
:10373800501680000030a0005016880050168000f7
:103748000040a100501688000080fa000000060022
:103758000000fa00501680000040a00050168800b3
:10376800501680000030a100501688000080fa0032
:10377800000006000000fa00a00020002500070055
:103788000080fa00000006000000fa00c422ef00e2
:10379800ca22ef00d022ef00d622ef00dc22ef0091
:1037a800e222ef00e822ef00f06f2c0000168800fc
:1037b8000080eb0030168800e001270060168800c2
:1037c8000080eb0090168800f03f2000c0168800ab
:1037d800f01f2300f0168800f03c2f002017880007
:1037e8006820ef006a20ef00c026ef00c626ef0031
:1037f800cc26ef00d226ef00d826ef00de26ef0019
:10380800e426ef00000c2000601988000080fa0010
:10381800000006000200fa00000f780001003700df
:103828001e0fe9001e0078000000e000fcff3a00cf
:103838000080fa00000006000200fa00000f78007d
:1038480003003700c0122000f2ff07001e0fe90036
:103858001e0078000000e000faff3a000080fa003d
:10386800000006000200fa00000f7800030037008d
:10387800803e2000f0ff07001e0fe9001e007800c0
:103888000000e000faff3a000080fa00000006009d
:103898000200fa00480007000040eb00004f7800e3
:1038a800affb070020fe0700209d2800affe0700a1
:1038b80050002000ebff07001bfe070020dd28005a
:1038c800aafe070050002000e6ff070016fe0700ca
:1038d8001e74a1001e4fe8009e40780050c0b3003f
:1038e80072fe0700e03a2900801f7800c6fc070036
:1038f8008f87e90010002000daff0700f3ff370088
:103908000000fa0000102300203a88004827ef0042
:103918007027ef007227ef007427ef000001eb001b
:1039280080072000a1092000337420008049780016
:1039380081497800824978000001eb00600420008a
:10394800710520002374200080497800814978009f
:10395800824978000080fa00000006000200fa00a0
:10396800000f78009e00780001408800ffff3700b4
:103978000000fa002080200080077800a081200045
:0c398800000188000080fa00000006002a
:020000040000fa
:1039940002080000200000000000000000080000f1
:1039a4000200000002000000ffff000022080000e7
:0c39b40004000000000000000000000003
:020000040000fa
:1039c0000000fa0072ff070003000700ceff0700a7
:1039d0000080fa00000006000000fa000080fa00f3
:0439e00000000600dd
:020000040000fa
:020000040002f8
:04aff800bf7800001e
:020000040000fa
:020000040002f8
:04affc007f3f000093
:00000001FF
