:020000040000fa
:080000000002040000000000f2
:020000040000fa
:040008005c04000094
:020000040000fa
:04000c0044030000a9
:020000040000fa
:040010008603000063
:020000040000fa
:040014006403000081
:020000040000fa
:04001800a60300003b
:020000040000fa
:04001c005c04000080
:020000040000fa
:040020005c0400007c
:020000040000fa
:040024005c04000078
:020000040000fa
:04002800c60300000b
:020000040000fa
:04002c005c04000070
:020000040000fa
:040030005c0400006c
:020000040000fa
:040034005c04000068
:020000040000fa
:040038005c04000064
:020000040000fa
:04003c005c04000060
:020000040000fa
:040040005c0400005c
:020000040000fa
:040044005c04000058
:020000040000fa
:040048005c04000054
:020000040000fa
:04004c005c04000050
:020000040000fa
:040050005c0400004c
:020000040000fa
:040054005c04000048
:020000040000fa
:040058005c04000044
:020000040000fa
:04005c005c04000040
:020000040000fa
:040060005c0400003c
:020000040000fa
:040064005c04000038
:020000040000fa
:040068005c04000034
:020000040000fa
:04006c005c04000030
:020000040000fa
:040070005c0400002c
:020000040000fa
:040074003003000055
:020000040000fa
:04007800e40300009d
:020000040000fa
:04007c005c04000020
:020000040000fa
:040080005c0400001c
:020000040000fa
:040084005c04000018
:020000040000fa
:040088005c04000014
:020000040000fa
:04008c005c04000010
:020000040000fa
:040090005c0400000c
:020000040000fa
:040094005c04000008
:020000040000fa
:040098005c04000004
:020000040000fa
:04009c00020400005a
:020000040000fa
:0400a0005c040000fc
:020000040000fa
:0400a4005c040000f8
:020000040000fa
:0400a8005c040000f4
:020000040000fa
:0400ac005c040000f0
:020000040000fa
:0400b0005c040000ec
:020000040000fa
:0400b4005c040000e8
:020000040000fa
:0400b8005c040000e4
:020000040000fa
:0400bc005c040000e0
:020000040000fa
:0400c0005c040000dc
:020000040000fa
:0400c4005c040000d8
:020000040000fa
:0400c8005c040000d4
:020000040000fa
:0400cc005c040000d0
:020000040000fa
:0400d0005c040000cc
:020000040000fa
:0400d4005c040000c8
:020000040000fa
:0400d8005c040000c4
:020000040000fa
:0400dc005c040000c0
:020000040000fa
:0400e0005c040000bc
:020000040000fa
:0400e4005c040000b8
:020000040000fa
:0400e8005c040000b4
:020000040000fa
:0400ec005c040000b0
:020000040000fa
:0400f0005c040000ac
:020000040000fa
:0400f4005c040000a8
:020000040000fa
:0400f8005c040000a4
:020000040000fa
:0400fc0020040000dc
:020000040000fa
:040100003e040000b9
:020000040000fa
:040104005c04000097
:020000040000fa
:040108005c04000093
:020000040000fa
:04010c005c0400008f
:020000040000fa
:040110005c0400008b
:020000040000fa
:040114005c04000087
:020000040000fa
:040118005c04000083
:020000040000fa
:04011c005c0400007f
:020000040000fa
:040120005c0400007b
:020000040000fa
:040124005c04000077
:020000040000fa
:040128005c04000073
:020000040000fa
:04012c005c0400006f
:020000040000fa
:040130005c0400006b
:020000040000fa
:040134005c04000067
:020000040000fa
:040208005c04000092
:020000040000fa
:04020c0044030000a7
:020000040000fa
:040210008603000061
:020000040000fa
:04021400640300007f
:020000040000fa
:04021800a603000039
:020000040000fa
:04021c005c0400007e
:020000040000fa
:040220005c0400007a
:020000040000fa
:040224005c04000076
:020000040000fa
:04022800c603000009
:020000040000fa
:04022c005c0400006e
:020000040000fa
:040230005c0400006a
:020000040000fa
:040234005c04000066
:020000040000fa
:040238005c04000062
:020000040000fa
:04023c005c0400005e
:020000040000fa
:040240005c0400005a
:020000040000fa
:040244005c04000056
:020000040000fa
:040248005c04000052
:020000040000fa
:04024c005c0400004e
:020000040000fa
:040250005c0400004a
:020000040000fa
:040254005c04000046
:020000040000fa
:040258005c04000042
:020000040000fa
:04025c005c0400003e
:020000040000fa
:040260005c0400003a
:020000040000fa
:040264005c04000036
:020000040000fa
:040268005c04000032
:020000040000fa
:04026c005c0400002e
:020000040000fa
:040270005c0400002a
:020000040000fa
:040274003003000053
:020000040000fa
:04027800e40300009b
:020000040000fa
:04027c005c0400001e
:020000040000fa
:040280005c0400001a
:020000040000fa
:040284005c04000016
:020000040000fa
:040288005c04000012
:020000040000fa
:04028c005c0400000e
:020000040000fa
:040290005c0400000a
:020000040000fa
:040294005c04000006
:020000040000fa
:040298005c04000002
:020000040000fa
:04029c000204000058
:020000040000fa
:0402a0005c040000fa
:020000040000fa
:0402a4005c040000f6
:020000040000fa
:0402a8005c040000f2
:020000040000fa
:0402ac005c040000ee
:020000040000fa
:0402b0005c040000ea
:020000040000fa
:0402b4005c040000e6
:020000040000fa
:0402b8005c040000e2
:020000040000fa
:0402bc005c040000de
:020000040000fa
:0402c0005c040000da
:020000040000fa
:0402c4005c040000d6
:020000040000fa
:0402c8005c040000d2
:020000040000fa
:0402cc005c040000ce
:020000040000fa
:0402d0005c040000ca
:020000040000fa
:0402d4005c040000c6
:020000040000fa
:0402d8005c040000c2
:020000040000fa
:0402dc005c040000be
:020000040000fa
:0402e0005c040000ba
:020000040000fa
:0402e4005c040000b6
:020000040000fa
:0402e8005c040000b2
:020000040000fa
:0402ec005c040000ae
:020000040000fa
:0402f0005c040000aa
:020000040000fa
:0402f4005c040000a6
:020000040000fa
:0402f8005c040000a2
:020000040000fa
:0402fc0020040000da
:020000040000fa
:040300003e040000b7
:020000040000fa
:040304005c04000095
:020000040000fa
:040308005c04000091
:020000040000fa
:04030c005c0400008d
:020000040000fa
:040310005c04000089
:020000040000fa
:040314005c04000085
:020000040000fa
:040318005c04000081
:020000040000fa
:04031c005c0400007d
:020000040000fa
:040320005c04000079
:020000040000fa
:040324005c04000075
:020000040000fa
:040328005c04000071
:020000040000fa
:04032c005c0400006d
:020000040000fa
:040330005c04000069
:020000040000fa
:040334005c04000065
:020000040000fa
:10040000cf8f20000e7f22000e0188000000000028
:10041000000020000000e000020032000001200087
:1004200020028800140007009a0107000000e00085
:1004300003003a00e0db2400010020000200370046
:100440000000200001002000810f70000100320038
:1004500014000700000020000000e000020032004d
:100460000000020000000000e6330200000000006f
:100470000040da000000fe004440a900e0ee210048
:100480000000e0000300320000002000a00188000e
:100490004440a800000006008a1f78008b1f7800e7
:1004a0000000060091018800800478000000eb0045
:1004b0001a003700e284440032a0b4009905ba0063
:1004c000e284440032a0b4009906ba00e2844400f9
:1004d00032a0b4000006eb00476fde00fd07b2005b
:1004e000636ce10003003a00ebff07000000eb0043
:1004f0000a003700606ce10004003a00005deb0088
:100500008b05e900fdff3e00040037006168e10053
:10051000010032000086eb000b00070019c7ba008b
:100520001905ba000e04e00003003a000a00e000da
:10053000e0ff3a0000000600fe07b2009e018800be
:100540008a047800f5ff3700395dba008b05e900b1
:100550000c003200295dba008b05e900080032006a
:100560000c00e00003003a00e284440032a0b40032
:10057000f5ff370019ddba008b05e900faff3a00f4
:100580008904e800e184440032a0b40000000600c1
:10059000b8460400000000002247040000000000ec
:1005a000cc47040000000000f446040000000000f6
:1005b000264b040000000000704b04000000000007
:1005c000fa48040000000000444a04000000000053
:1005d000b64a0400000000003e4404000000000091
:1005e0008244040000000000b04404000000000049
:1005f00040450400000000008c460400000000009c
:10060000024504000000000038460400000000001d
:100610007845040000000000b04504000000000020
:10062000d045040000000000ce4804000000000097
:10063000e648040000000000f40704000000000089
:100640000e080400000000003c0804000000000048
:10065000ae120400000000000000040000000000d2
:10066000801f78000000fa003004800068006000fd
:100670000000e000010032008660a9000080fa005e
:100680004f007800004006003600f800809fbe0052
:10069000829fbe00849fbe00869fbe000000fa00bd
:1006a0008020a9000000eb00d92607000080fa0096
:1006b0004f03be004f02be004f01be004f00be0000
:1006c0003600f900004006003600f800809fbe00aa
:1006d000829fbe00849fbe00869fbe000000fa007d
:1006e000d02607008040a90010002000c82607007f
:1006f0000080fa004f03be004f02be004f01be0053
:100700004f00be003600f900004006003600f80039
:10071000809fbe00829fbe00849fbe00869fbe0059
:100720000000fa008060a90020002000b826070021
:100730000080fa004f03be004f02be004f01be0012
:100740004f00be003600f900004006003600f800f9
:10075000809fbe00829fbe00849fbe00869fbe0019
:100760000000fa008080a90030002000a8260700c1
:100770000080fa004f03be004f02be004f01be00d2
:100780004f00be003600f900004006003600f800b9
:10079000809fbe00829fbe00849fbe00869fbe00d9
:1007a0000000fa00be2507008400a9000080fa00be
:1007b0004f03be004f02be004f01be004f00be00ff
:1007c0003600f900004006003600f800809fbe00a9
:1007d000829fbe00849fbe00869fbe000000fa007c
:1007e000c02507008680a9000080fa004f03be00e4
:1007f0004f02be004f01be004f00be003600f900a0
:10080000004006003600f800809fbe00829fbe00b8
:10081000849fbe00869fbe000000fa00c22507002c
:1008200087a0a9000080fa004f03be004f02be005f
:100830004f01be004f00be003600f9000040060028
:100840003600f800809fbe00829fbe00849fbe00dd
:10085000869fbe000000fa00c42507008aa0a900f8
:100860000080fa004f03be004f02be004f01be00e1
:100870004f00be003600f900004006003600f800c8
:10088000809fbe00829fbe00849fbe00869fbe00e8
:100890000000fa00ba2507008ac0a9000080fa000b
:1008a0004f03be004f02be004f01be004f00be000e
:1008b0003600f900004006000040da000000fe00ab
:1008c0000a00fa0011002000b1bf9f00c0bf9f00c6
:1008d0006a805700d60707004fb897000080fa00db
:1008e000000006000a00fa00e20f500034003e004b
:1008f000c0478000e10f500003003200e20f5000bb
:1009000011003a000c003700032220000300e00031
:1009100001003a000040da002002e2000200350047
:100920002822ef0021e2a8002342ab000d003a008c
:100930002342a8000b003700032320000300e0003f
:1009400001003a000040da003002e2000200350007
:100950003822ef0031e2a8003342ab0001003a0038
:100960003342a800820178000b0037003102fb00ff
:10097000e10f500004003a002322ab00feff3a00d2
:1009800024118800030037003322ab00feff3a0039
:10099000a41188008301e9000300e000f3ff3a009e
:1009a000e10f500003003a002302ab00feff3200cb
:1009b0000b0037003302ab00feff320008003700a7
:1009c00033002000b3bf9f00c0bf9f00d1bf9f0076
:1009d000e2bf9f006a805700970707006fb9970032
:1009e000020078000080fa00000006000a00fa0009
:1009f00051002000b1bf9f00c0bf9f006a80570018
:100a00008f0707005fb897000080fa00000006001b
:100a1000889fbe0080047800d04780000000e0007e
:100a200004003a000e0007000084eb000000e00024
:100a300008003500d84780000900e00005003200ba
:100a400009004400060007000000e00001003d002e
:100a50000084eb00080078004f04be000000060090
:100a6000800078000100e00003003a000000200050
:100a7000d0478800000005000080eb000200200045
:100a8000828f500002003e00d14788000000eb003a
:100a90000000060000000500889fbe008a9fbe007f
:100aa00030044200b0844a0030054b0090854b0072
:100ab0006000b1000898be000a90be000440e1004a
:100ac00005c8e10006d0e10007d8e10002003100ce
:100ad000680040001008e8004f05be004f04be004b
:100ae00000000600889fbe008a9fbe003004be0042
:100af0002005be000418540005985c0006185d002f
:100b000007985d00110020000440e10005c8e100e5
:100b100006d0e10007d8e100010039008000eb00b9
:100b2000108810004f05be004f04be0000000600f4
:100b30001200fa00889fbe008a9fbe008c9fbe00f4
:100b4000e0b79f00f1b79f0082bf9f0093bf9f0057
:100b50000605be000404be000000eb00d0b79f00f5
:100b6000c0b79f00b0b79f00a0b79f0090b79f008d
:100b7000000678005fb19700cfb097008201410076
:100b80003fb097000200e00004003d00370007007e
:100b90007e805700c0ff07000300370033000700c6
:100ba0007e805700cfff0700dfb697000d00e00002
:100bb0000c0035006fb29700ffb297000fbb970093
:100bc0009fbb970010002000010020006011b800ba
:100bd000000272008182720002037300838373003b
:100be0001b0007000c06e80001042000810f5600de
:100bf000e0ff3a000d00e00004003d000802be00e6
:100c00000a03be007e805700a3ff07005fa897007d
:100c10000000e00005003a001fb29700afb2970055
:100c20003fb39700cfb39700090007006fb097005c
:100c3000ffb097000fb997009fb997004f06be000d
:100c40004f05be004f04be000080fa000000060001
:100c50000100070000000600a4b79f00b5b79f0081
:100c6000c6b79f00d7b79f00000006004f09de00ff
:100c700082817100b3b79f004f01de008180400088
:100c800082807000a1b79f008fb097004f09de00ef
:100c9000000040000200700090b79f007fa89700fe
:100ca0004f01de00818040008280700081b79f008c
:100cb0000d0007004f3ade00000040000400700005
:100cc000f0af9f00080007000402420085824a003e
:100cd00006034b0087834b00dfff07000802be00be
:100ce0000a03be00000006002fb29700bfb29700b3
:100cf0004fb39700dfb3970000000600881f78000d
:100d000018002000881f780089ff07008f87e900fe
:100d10004f04780000000600801feb0084ff0700ee
:100d20008f87e90000000600889fbe008a9fbe00f2
:100d3000e00f5000e08f5800e00f5900e08f59009d
:100d40000c003d006044b8006055b800000054003d
:100d500081805c0002015d0083815d00180020003d
:100d60001500070008003d00180007000004eb0014
:100d7000050037000004eb000f00070002003d00f3
:100d80001200070018002000dcff07000800e00048
:100d9000060032006022b8006033b8000000520044
:100da00081805a0002015b0083815b004f05be0019
:100db0004f04be0000000600e00f5200e08f5a0012
:100dc000e00f5b00e08f5b00000006006044b800ad
:100dd0006055b8000402540085825c0006035d0083
:100de00087835d0000000600889fbe008a9fbe00ca
:100df0008c1f7800e00f5000e08f5800e00f590082
:100e0000e08f59000d003d006044b8006055b80007
:100e10000000540081805c0002015d0083815d0060
:100e20001c0020000820e10009a8e1000ab0e10050
:100e30000bb8e1000d003d00080037000006eb0094
:100e4000e00f5200e08f5a00e00f5b00e08f5b0084
:100e500006003d006044b8006055b800040254002c
:100e600085825c0006035d0087835d00aaff0700a2
:100e70000c00e000060032006022b8006033b800c9
:100e80000000520081805a0002015b0083815b00f8
:100e90004f0678004f05be004f04be00000006005c
:100ea000889fbe008a9fbe008c1f78000006eb0062
:100eb000e00f5000e08f5800e00f5900e08f59001c
:100ec00007003d006044b8006055b80000005400c1
:100ed00081805c0002015d0083815d001c002000b8
:100ee000e00f5200e08f5a00e00f5b00e08f5b00e4
:100ef00007003d006044b8006055b800040254008b
:100f000085825c0006035d0087835d000c00a20003
:100f10000c0007000c00e000060032006022b80060
:100f20006033b8000000520081805a0002015b006b
:100f300083815b004f0678004f05be004f04be0062
:100f400000000600889fbe008a9fbe008c9fbe00e6
:100f50000404b8000506b8008904460060854e0008
:100f60000606b8000a054600e0854e000706b800f0
:100f70008b054600040eb800890446000a854e0021
:100f8000e0854d00050eb8000a0546008b854e0031
:100f9000060eb8008b0546000416b8000a05460088
:100fa0008b854e000516b8008b054600041eb80060
:100fb0008b0546000800be000a01be004f06be00b9
:100fc0004f05be004f04be000000060080017800ff
:100fd00002003700b15978000201e9000200e00088
:100fe000fcff3a0000000600889fbe0080047800e5
:100ff0000203be00010478006149b800898fd20065
:101000008381d200080278000600be000e060700a9
:10101000088044004f04be0000000600881f7800ce
:101020000204780008017800e8ff0700080040008b
:101030004f047800000006000000fa00881f7800c6
:10104000000478006a825700bfb997000801780051
:10105000417f2000e0802000160007000000e00033
:10106000020035008040eb00017478004f047800e6
:101070000080fa0000000600889fbe00000478008f
:101080000203be008104780008027800890178001c
:10109000120020000600be00ef030700890f500079
:1010a000010032000004eb00080078004f04be008d
:1010b000000006006800fa00889fbe008a9fbe00fc
:1010c0008004780001047800820578000305780028
:1010d0008400780000f92f000f004000dc030700b7
:1010e000d98f9f00fb8f9f000000eb00a09f9f0007
:1010f000e88f9f009a84fb000904fb008904ea0042
:10110000cf4cde0050022000800f54000d00320052
:10111000e18f54000b003a00090178008a00780042
:101120007f889700df89970003000100f08f9f0000
:101130000000e000950032002f9897000000e800c2
:10114000a09f9f000905450050022000800f540019
:10115000040032000800e000e6ff3a002f989700f4
:101160008b0037000000eb00809f9f00f0979f00ee
:10117000e0979f00d0979f00c0979f00b0979f0077
:1011800007003700218e20000100500000004000c1
:10119000618d200061007800cf98970001007000f9
:1011a000c09f9f000a04780008057800ba447800c0
:1011b0008900fb00208e2000900107000000e00065
:1011c000f0ff3a00a1c2b30081cf54000e003a00f4
:1011d0008f8897000180e900808f9f0010007800c1
:1011e000b09f9f000000e00005003d000000ea0005
:1011f000b09f9f004f9897000020a000c09f9f00c5
:101200000804e80010003700b09f9f0088007800b5
:101210000000eb0005003700f3ff2700830f5000ac
:10122000020032006a02b9000400410001047800a3
:10123000880078003101fb000203b100e90f510082
:10124000f5ff3600b09f9f00e0c2b300984f10003a
:10125000020032000080eb0019003700a0c2b3008a
:10126000d84f100007003a008f8897000180e900ee
:10127000808f9f0010007800909f9f000804e80076
:10128000100037000000eb00909f9f00880078005e
:1012900005003700f3ff2700830f500002003200e3
:1012a0006a02b90004004100010478008800780057
:1012b0003101fb000203b100e90f5100f5ff3600d8
:1012c000909f9f00984478008900fb00e08c2000ec
:1012d0004a0107000000e000020032000804e800b4
:1012e000010037008044eb00a97f9f0080c6b30057
:1012f00080cf540006003a0098cf140010003a0046
:1013000066405000a07f9f000804e8000c003700f2
:10131000c0c6b30080cf540009003a0098cf140033
:1013200007003a0067404000d84f100002003a0022
:101330006e4050000100370010c7b300a07f9f002f
:101340001801fb00c3fb2f008f81410001f92f0022
:101350008f80400020f92f000f004000150007008b
:101360000000e00009003a00c1fb2f008f80400020
:1013700020f92f000f0040005b0207000000e00092
:10138000020035000805e8005aff37000080eb0036
:101390004f05be004f04be000080fa0000000600aa
:1013a000030278008201780001017800c1832000e7
:1013b00040ff3700889fbe008a9fbe00e4c6b3008e
:1013c000844f5100be00320010003c006b425200be
:1013d000844f51001800320005003c0054c2b30095
:1013e000844f5100f600320084c5b3000f0037006f
:1013f00044c6b300844f51001400320065424200dd
:10140000844f5100f1003a001000370004c7b300c8
:10141000844f5100dd003200560035006542420025
:10142000844f51005300320063424200844f510008
:10143000e6003a004f0037001181e9008208780089
:10144000a008900012417800de003700006a90008a
:10145000c5c6b300854f520007003a0091027800dc
:1014600064825200840878001402be004fabde0094
:10147000860378001400370015c7b300854f52006b
:1014800003003a0011047800680254000500370098
:10149000a5c6b300854f520006003a0091047800bb
:1014a00068825400840878005403be004402be00e1
:1014b000050037001182e9008408780014027800e2
:1014c000cfa2de00612bb9000498be000690be00da
:1014d0008068900088c6b30088cf50000d003200ad
:1014e00028c6b30088cf500004003a000402fb0075
:1014f000cfa2de00612bb9000800370048c7b30057
:1015000088cf5000030032006644440088cf50006a
:1015100004003a00cfa2de00612bb9000498be009f
:101520000690be003002be002003be00a00890005e
:10153000e00f5200e08f5a00e00f5b00e08f5b008d
:1015400002003d00d4c2b300080037003012900002
:101550000418a30002003200b4c2b3000300370035
:101560000408a3005100320004c2b30084f17800e3
:101570004c003700006a9000c5c6b300854f52008a
:1015800008003a00110578006402550084087800cc
:101590001404be006055b8000802be000a03be0075
:1015a0001400370015c7b300854f520003003a00fe
:1015b000910478006882540005003700a5c6b30086
:1015c000854f520006003a00110578006802550068
:1015d000840878005403be004402be0005003700b2
:1015e0001182e90084087800140278008002eb0080
:1015f0006033b8000498be000690be00806890007a
:1016000088c6b30088cf50000d00320028c6b30052
:1016100088cf500004003a000482fb008002eb00f7
:101620006033b8000800370048c7b30088cf5000c7
:10163000030032006644440088cf500004003a00a2
:101640008002eb006033b8000498be000690be0034
:10165000b01090000138a300140032003002be0028
:101660002003be00e00f5200e08f5a00e00f5b0045
:10167000e08f5b000d00320081c7b300814f510045
:101680000300320081c5b300814f510007003a00ca
:10169000a008900004c3b30084f178008100e80042
:1016a00082f178008100e80021089800a0089000ed
:1016b0008181410073009800824078003e0037002d
:1016c00080699000c4c6b3001181e90084cf510045
:1016d000220032000a003c006442520084cf5100d4
:1016e0002500320004c2e80084cf5100130032000c
:1016f0006842520084cf51001e003a000a003700b1
:1017000044c7b30084cf51001b0032006642420040
:1017100084cf5100180032006942520084cf51003a
:1017200014003a0005003700820878009200780023
:1017300020609000804878002c00370082087800f4
:101740009200780010129000cfa2de00612bb90049
:101750008498be008690be0024003700820878007e
:101760009200780010119000cf91de008288be00b8
:101770001e0037001181e90082087800920078008d
:101780001010900080087800180037001181e900df
:101790008208780012027800cfa2de00612bb90027
:1017a0000498be000690be00a00890008181410010
:1017b0007300980081c7b3001c0007000b003700be
:1017c000a008900082f1780006003700a008900081
:1017d000818141000204e00001003a0052c2b300de
:1017e000824978008100e800210898000000eb00a1
:1017f0004f05be004f04be00000006000200370087
:101800000304e000060032000001780002007800c6
:10181000b041780081cf5100f9ff3a000100370054
:101820000001eb000200780000000600fc87470082
:10183000889fbe008a9fbe008c9fbe008e1f7800ce
:101840000006780080c5b30080cf50000a00320047
:101850007740400080cf50000a00320069404000cd
:1018600080cf50000b003200d089200080bf9f0045
:10187000ae0020000a003700c288200082bf9f000f
:1018800006003700d389200083bf9f008e00200010
:1018900003003700d489200084bf9f000e01200080
:1018a0003c02be002c03be000605be000404be00c0
:1018b00040c6b30080cf50000300320065404000b6
:1018c00080cf50000b003a00e00f5200e08f5a002a
:1018d000e00f5b00e08f5b0006003d006000b80099
:1018e0006011b800040450008584580006055900b2
:1018f00087855900e80f570004003200400020009f
:10190000f00f570038003a00010037003000200087
:10191000e00f5400e08f5c00e00f5d00e08f5d00a1
:1019200004003a008c1090008d0120000100e000be
:10193000060032008e00e900888060008fba9700b0
:10194000e5c07800f1ef9f007d0120008000780065
:101950008100e900050033008b05d1000a85d30022
:101960008984d3000884d300f9ff3700089ebe00a5
:101970000a96be00120037008d06e9008e00e900cd
:10198000848060000fb99700e2c1780082fd2f00cb
:101990000f01410003f17e00800078008100e90022
:1019a000050033008783d1000683d3008582d300ee
:1019b0000482d300f9ff3700049ebe000696be00e5
:1019c0003c02be002c03be00e00f5200e08f5a0024
:1019d000e00f5b00e08f5b008b0034000d00e00047
:1019e000e5ff3c00880037000c68900081c6b3001a
:1019f000814f50000b00320006003c000004e00064
:101a000008003200e6c05000814f50004e003a00fe
:101a100004003700c1c6b300814f50004a003a00ad
:101a2000210037000800e00004003a000c1090008c
:101a30008d0120000000e0000600320011000900c6
:101a40000e84d8000fb99700e2c07800f1ef9f0034
:101a50007d012000110009000e84d8000a00370023
:101a6000110009000e04d8008d06e9000e81b900ae
:101a7000020454008fb8970061417c0081fd2f0063
:101a80008f80400082f07e00000478000800e000b3
:101a9000020032000d00e000f1ff3c00cfc4de0088
:101aa000614db90025003700e00f5400e08f5c0065
:101ab00004003a000c1090008d0120000000e000ae
:101ac000070032006171b9000800be00b5030700cd
:101ad0008fb99700e3417800f3ef9f007d0120006c
:101ae0006171b9000800be009e0307000b003700bb
:101af0006171b9000800be008b0307008d06e90084
:101b000000f1b900020454000fba9700e4427c00cf
:101b100084fd2f000f02420005f27e000004be008b
:101b2000e00f5000e08f5800020032000d00e0008e
:101b3000efff3c004fcdde008a057800089ebe0016
:101b40000a96be0030003700e00f5400e08f5c00c2
:101b5000e00f5d00e08f5d0004003a000c10900083
:101b60008d0120000000e000090032006172b90020
:101b7000612bb9000800be000a01be0066fc070028
:101b80000fba970064427800f4ef9f007d012000b7
:101b90006172b900612bb9000800be000a01be00e5
:101ba00056fc07000d0037006172b900612bb900c7
:101bb0000800be000a01be005bfc07008d06e900bc
:101bc00000f2b900040454008fba970065427c000b
:101bd00085fd2f008f82420084f27e00009ebe00b1
:101be0000296be003c04be002c05be00e00f54006f
:101bf000e08f5c00e00f5d00e08f5d0002003400cc
:101c00000d00e000e8ff3c00e80f570010003a002c
:101c10003c1090000038a3000d003200f78f5600f2
:101c200006003e0085fd2f008f824200e5c07e0049
:101c300000c3b30080cf5000050032008d06e900dc
:101c400002c3b30081fd2f008f80400082f07e0030
:101c500078811600420e98007c00900083fd2f00d2
:101c60008f8141008d804100d8fc07004c08900016
:101c70008c109000810f500006003d000080500045
:101c8000300e98003c1090000040a10030169800e3
:101c90000f0037000100e0000d003d00bc10900077
:101ca000f4806000f08f500009003a002c11900081
:101cb000ac089000810051003c09900082805000e7
:101cc000008050004240a90001003400300e98000e
:101cd0004f0778004f06be004f05be004f04be0000
:101ce000cf01b100000006000400fa00889fbe008a
:101cf0008a9fbe008c1f78000004780001067800df
:101d0000a81490002808900080845400380890009f
:101d10008084540048089000808454005808900043
:101d200080845400680890008084540078089000f3
:101d3000808454000002220090bf9f000003230013
:101d4000a0bf9f00381090000028a30015003a00a3
:101d50000900e00013003400090578008a057800c6
:101d6000e20f5500010036002b002000c801900052
:101d70000b017800ee80570068009000030001001e
:101d8000600498000000e000aa00320018109000e3
:101d90000b004000101498000b0555004240a900ac
:101da000eeff3c00280990000200e0000c00340027
:101db000c80190008c0078006800900003000100ca
:101dc000600498008080eb000000e0009a00320080
:101dd000981090002808900000804000101498008f
:101de000380d90000a00e000110034008a057800e8
:101df000e20f5500010036002b002000c8019000c2
:101e00000b017800ec80570068009000030001008f
:101e1000600498000000e000860032001810900076
:101e20000b004000101498000b055500edff370023
:101e300008699000c808900050c6b300804f510058
:101e400008003a000100e00015003400580290003c
:101e500008099000980990006800900004000100b3
:101e6000070037000100e0000d003400c8019000b9
:101e700001017800f8009000680090000300010064
:101e8000600498008080eb000000e0006a003200ef
:101e900098109000480890000080400010149800ae
:101ea000580d90000a00e000110034008a05780007
:101eb000e20f5500010036002b002000c801900001
:101ec0000b017800ec8057006800900003000100cf
:101ed000600498000000e0005600320018109000e6
:101ee0000b004000101498000b055500edff370063
:101ef000086990006808900051c6b300814f5100f6
:101f00000d003a000000e0001c0034007801900051
:101f1000c8089000010141006111b800828fd20011
:101f20008381d20058029000800078006800900001
:101f300004000100090037000000e0000f00340039
:101f400078019000c808900081004100c80190000d
:101f50000001780068009000030001006004980010
:101f60008080eb000000e000330032009810900009
:101f7000680890000080400010149800780d9000d0
:101f80000a00e000110034008a057800e20f5500d5
:101f9000010036002b002000c80190000b017800e2
:101fa000ec80570068009000030001006004980076
:101fb0000000e0001f003200181090000b004000ed
:101fc000101498000b055500edff370038109000f5
:101fd0008000eb000028a300170032000900e00099
:101fe0001500340009057800e28f54000100360026
:101ff0002a002000c80190000a017800ee805700f6
:102000006800900003000100600498000000e000f8
:1020100008003200181090000a00400010149800c8
:102020008a8454004240a900eeff3c008000eb008f
:10203000010037008080eb00010078004f06780037
:102040004f05be004f04be000080fa0000000600ed
:102050000108780000000600e6874700889fbe0060
:102060008a9fbe008c9fbe008e1f780082bf9f009b
:1020700004047800029ab900f4b79f000400e0005d
:10208000590032000fb997000200e00057003200fb
:102090000006be0004077800c800900068009000a9
:1020a000808f50000400390008007800910007007c
:1020b0000000e0003b0035000040200018006000f8
:1020c0000a0032008e017800a20020000c00be0041
:1020d000fa0107000005be0000807500070032000d
:1020e0008c0455008904e800050037008e04780050
:1020f0000a0020000b002000010037008e04780049
:10210000480190006800900002005000890f5000c4
:1021100003003100800478000a0020000b0020003a
:102120006111b800828fd2008381d2000902780049
:102130000c00be00c40107000907570048009000ca
:1021400009004000400498000a8575000400320030
:10215000080078002c0007000000e00011003a00a1
:102160000e00e0000f0032006148b800808fd200fe
:102170008180d2000000780000f0a1008c01d00026
:102180000001d000028641004220a80081864e0056
:102190004200a9004220ae004200a8000c86d300f5
:1021a000bdff3700008020001800600002003200f0
:1021b000080078001400070000c02000180060002c
:1021c00002003200c8019000630498007fb09700bd
:1021d0000e0750000fb99700110009000287d800c0
:1021e00080017800010037008001eb0003007800d7
:1021f0004f0778004f06be004f05be004f04be00db
:102200006f00b10000000600889fbe000004780047
:102210000800e0000f003a008004eb000904780099
:102220008800d000c0872000610078000000e00036
:1022300004003200f4ff07000000e00001003d0050
:102240008084eb000804e800e80f5400f4ff3a0033
:102250002500370000002200180060008004eb0019
:1022600021003200a80490000f003700090151003e
:10227000384090000000fb008900780099f90700c1
:102280000000e00007003c00280090004004980097
:1022900060049800500c98001890a0008084eb0017
:1022a000110037008084440048019000828f540060
:1022b000eeff390028009000400498009800780054
:1022c00002c020000281600001003a003800900046
:1022d00001e8a3000200320060049800010037000a
:1022e000500c98008004eb00090078004f04be00f9
:1022f00000000600889fbe008a1f78000004780056
:10230000c8009000680190000000eb00828f500030
:102310003c0039001800780022002900020160000a
:10232000e20f510007003200012020000000e00011
:102330000100350001202400008c70000080eb00bb
:10234000300037000200260002006000820f5000bb
:1023500009003a0038009000808f500006003900d4
:1023600008007800a8ff0700800078000080eb00dc
:102370000100e00023003a001805780000c02000aa
:102380000000650018003a00a804900060022000d8
:1023900008004000808f540013003a000020200005
:1023a000ef000700200498000000e00005003a005c
:1023b00029049800490498008904e8003904980029
:1023c000080037000a60a0000a0c7800400498005a
:1023d000012020008080400031049800400c9800cb
:1023e000500c98000c000700280090005004980042
:1023f000380090006004980000002600180c70005f
:102400000000eb004f0578004f04be0000000600fe
:10241000e02a210061003700881f7800488f2000e3
:102420001804e00003003a00f9ff070020c0b300e1
:10243000004c78004f04780000000600889fbe0022
:1024400000047800080078006fff0700800478001f
:1024500000042000180060000200320028009000f4
:102460005a0007000000eb0020049800384090005c
:102470000004e000050035000000fb0010f9070033
:102480000000e000010032008084eb001810900092
:102490000000e0000800320054f907000000e000ee
:1024a000010032008084eb00181090004700070004
:1024b0000000eb00101498000008200018006000d5
:1024c000150032000001eb006000b800c387200057
:1024d0000202d00063027a00880f520005003a0021
:1024e0000000400081804800008041000008eb00af
:1024f0000600370061004000e08048000201e8006b
:10250000e80f5000e08f5800f0ff3a000800780014
:102510002e0007000e003700000c780000c0eb0012
:102520003044980060022000080040002004980019
:102530004004980050049800400c980060049800f3
:10254000500c98007004980076004400000c98002d
:10255000090078004f04be0000000600881f7800c4
:102560000004eb006140b800e2ff2f00f3ff2f00f2
:102570000f010700a2882000620078000000e00040
:1025800001003200adff07000804e800e80f540026
:10259000f4ff3a004f04780000000600010020001c
:1025a0000100e00008003200010080000100e000ae
:1025b000050032008100e900010088008100d000a0
:1025c0000200800000b17800000006000000e0007a
:1025d0002f003200c0017800e38f51002c0036003c
:1025e0000308a3002a003a00914780000100e000a0
:1025f00002003200810f50000400310011009800e9
:102600009047880016003700820078001101900082
:102610000200e00002003200800f5100faff390092
:102620001102780084824000850f500018003900a4
:10263000808f520003003a008308420001007800b6
:10264000070037000200e000030032008301400071
:10265000830f51000e00390012009800900098007e
:10266000900090000100e0000900320010014000dd
:10267000828f500006003a00028f20000009eb0014
:10268000100178001108410091009000110098009d
:1026900000000600889fbe0000047800814780008b
:1026a0000100e00002003200010078000d00370058
:1026b00091478000208f200004003700910f5400c4
:1026c000250036000180e800910090000100e00044
:1026d000faff3a0010003700920f54001e00360037
:1026e0000280e800100178000200e000faff3a00e2
:1026f0001101780091478000208f200004003700ee
:10270000910f5400140036000180e8009100900001
:10271000828f5000faff3a00b9478000888f54003a
:1027200001003100880478000900780036000700b5
:102730000000e00004003a00888f540005003200d9
:102740008904d100f5ff3700091878009fff0700c2
:10275000d2ff37000000eb004f04be00000006006f
:10276000881f7800630440000800a1008000eb008f
:10277000800f540021003600e30f540001003e009a
:102780004800200008007800c2ff07008000eb002e
:102790000000e000190032009000780091017800fc
:1027a00064815100880f5100030031001101900035
:1027b000020878000700370008814000020878000e
:1027c0009101900013019800100178001109140084
:1027d00088087800100178000000eb000200e0009b
:1027e00004003200920190000300e000010032007a
:1027f0000280e800804788008180e80001007800be
:102800004f04780000000600800078000000eb0014
:102810000100e00005003400010078007cf80700aa
:10282000e10f400001003a000000eb00000006004c
:1028300000c0da000000060000c0da000000060058
:1028400000c0da00000006003400f8000203be00f9
:10285000820270008502720002f0a60000f0a6005d
:102860008100e800a10188001500b20008003200d4
:10287000105978000402e9000d00320061004000a8
:10288000fbff39003420ec0000002800f8ff37007f
:10289000101978000482e90005003200620040004f
:1028a000fbff39003420ec0000002800f8ff37005f
:1028b0003400f9000601be00000006000300e0003d
:1028c00007003200a5018000a101880010427800b5
:1028d000a50188000402fb00820f520011003200a3
:1028e0008301e900a5018000a10188001042780061
:1028f000a50188000404e00008003200000278000e
:102900001000b00000026a004260af0000f0a000ba
:102910000482d2000180b000e8ff370000002000f0
:102920000100200000000600839f68000100e00015
:1029300002003d0060001000e08018000300e0008d
:1029400002003d0060011100e08119000500070050
:102950004f00e00002003b0060001000e080180023
:10296000000006006022b800060220000000d0002f
:102970008180d2000482d2008582d2000000a000b3
:102980000202520083825a00030031000202420018
:1029900083824a000000a1000603e900f3ff3a0029
:1029a00000000600efff07000400be000000060064
:1029b000020ab900001bb9000200b8008100420001
:0829c000810043000000060045
:020000040000fa
:1029c800031f00003f3900003f0e0000190c0000f3
:1029d800c0f80000fc9c0000fc700000983000006b
:1029e800031f00003f3900003f0600000d300000c3
:1029f800c0f80000fc9c0000fc600000b00c000067
:102a080004020000070d00001f1700001403000057
:102a180020400000e0b00000f8e8000028c00000f6
:102a280004120000171d00001f0f0000040800001a
:102a380020480000e8b80000f8f00000201000006e
:102a480001030000070d00000f0500000804000046
:102a580080c00000e0b00000f0a0000010200000de
:102a680001030000070d00000f020000050a000026
:102a780080c00000e0b00000f0400000a05000005e
:102a8800071f00003f6d0000ff3900001000000024
:102a9800e0f80000fcb60000ff9c00000800000001
:102aa80001030000033f00007f7f00007f7f0000dc
:102ab8000080000080f80000fcfc0000fcfc000026
:102ac8000422000010080000600800001224000022
:102ad80020440000081000000610000048240000f0
:102ae80001010000010100000101000001010000d6
:102af8001f3f00007fff0000fffc0000f8f000000f
:102b0800f8fc0000feff0000ff3f00001f0f000060
:102b1800002d000069cf00009ffc0000f8f00000c5
:102b280000b4000096f30000f93f00001f0f0000fa
:102b380000000000000500000f3c000098f00000b5
:102b48000000000000a00000f03c0000190f000089
:102b5800ffff0000ffff0000ffff0000ffff000075
:102b6800ffff0000ffff0000ffff0000ffff000065
:102b7800ffff0000ffff0000ffff0000ffff000055
:102b8800ffff0000ffff0000ffff0000ffff000045
:102df800ffff00009ffe0000000f00001fff000003
:102e0800800000007fff0000fc00000007ff0000ba
:102e18008000000000ff0000ffff0000ffff00002f
:102e2800ffff0000ffff0000ffff0000c0000000e0
:102e38000ffe00000000000007ff000080000000f7
:102e48007fff0000f000000003ff0000000000000a
:102e580000ff0000ffff0000ffff0000ffff000071
:102e6800ffff0000ffff0000c000000003fe00009d
:102e78000000000003ff0000800000003fff00008a
:102e8800e000000001ff00000000000001ff00005a
:102e9800ffff0000ffff0000ffff0000ffff000032
:102ea800ffff00008000000000fe0000000000009e
:102eb80001ff0000800000003fff000080000000cc
:102ec80000ff00000000000001ff0000ffff0000fd
:102ed800ffff0000ffff0000ffff0000ffff0000f2
:102ee80000000000007e000000000000007f0000dd
:102ef800800000003fff000000000000007e00008e
:102f08000000000003ff0000ffff0000ffff0000bb
:102f1800ffff0000ffff0000fffe000000000000b0
:102f2800007f000000000000007f0000800000001b
:102f38003ffe00000000000000fe0000000000004e
:102f480003ff0000ffff0000ffff0000ffff00007d
:102f5800ffff0000ffff0000003f0000003f0000ef
:102f6800003f0000007f0000000000003ffe00005e
:102f7800007e000000fe0000007f0000ffff000050
:102f8800ffff0000ffff0000ffff0000ffff000041
:102f9800ffff0000003f0000003f0000003f00006e
:102fa800003f0000000000003ffe0000007e00001f
:102fb80000fc000000ff0000ffff0000ffff000012
:102fc800ffff0000ffff0000ffff0000ffff000001
:102fd800001f0000003f0000803f0000003f00008d
:102fe80000e000003ffe0000007e000001fc000041
:102ff80000ff0000ffff0000ffff0000ffff0000d0
:10300800ffff0000ffff0000ffff0000801f00001f
:10301800803f0000803f0000003f000000e000000b
:103028001ffe000000fe000001fc000000ff000081
:10303800ffff0000ffff0000ffff0000ffff000090
:10304800ffff0000ffff0000800f0000801f00004e
:10305800801f0000003f000000e000001ffc00008f
:1030680000fc000001f8000001ff0000ffff000065
:10307800ffff0000ffff0000ffff0000ffff000050
:10308800ffff0000c00f0000c01f0000801f0000ed
:10309800003f000000e000001ffc000000ff0000ef
:1030a800fff8000001ff0000ffff0000ffff000025
:1030b800ffff0000ffff0000ffff0000ffff000010
:1030c800c00f0000ffff0000c01f0000003f00000d
:1030d80000e000001ffc000000ff0000fff80000f7
:1030e80003ff0000ffff0000ffff0000ffff0000dc
:1030f800ffff0000ffff0000ffff0000e0070000e7
:10310800ffff0000c01f0000803f000000e000003b
:103118001ffc000000ff0000fff00000000300009b
:10312800ffff0000ffff0000ffff0000ffff00009f
:10313800ffff0000ffff0000e0070000ffff0000a6
:10314800c01f0000803e000000e000001ffc0000df
:1031580001ff0000fff0000000030000ffff000077
:10316800ffff0000ffff0000ffff0000ffff00005f
:10317800ffff0000f0070000ffff0000c00f000085
:10318800803e000001f000001ffc000001ff00006d
:10319800fff0000000070000ffff0000ffff000035
:1031a800ffff0000ffff0000ffff0000ffff00001f
:1031b800f800000000ff0000e00f0000803e000063
:1031c80001f000000ffc000001ff0000ffe000001c
:1031d80000070000ffff0000ffff0000ffff0000e6
:1031e800ffff0000ffff0000ffff0000fc000000e1
:1031f800003f0000e00f0000803e000001f00000ea
:103208000ff8000001ff0000ffe00000000f0000c1
:10321800ffff0000ffff0000ffff0000ffff0000ae
:10322800ffff0000ffff0000ff000000001f00007c
:10323800e0000000007e000001f000000ff8000030
:1032480003ff0000ffe000000c0f0000ffff00007c
:10325800ffff0000ffff0000ffff0000ffff00006e
:10326800ffff0000ffc0000000070000f0000000a2
:1032780000fe000001f000000ff8000003ff00004e
:10328800ffe000000fff0000ffff0000ffff00004d
:10329800ffff0000ffff0000ffff0000ffff00002e
:1032a800ffe0000000070000f000000001fe000041
:1032b80001f000000ff8000003f000001fc000003c
:1032c8001fff0000ffff0000ffff0000ffff0000de
:1032d800ffff0000ffff0000ffff0000ffff0000ee
:1032e800f8030000f000000003fe000001f00000f9
:1032f8000ff8000003e000001fc000001fff0000df
:10330800ffff0000ffff0000ffff0000ffff0000bd
:10331800ffff0000ffff0000ffff0000fc030000ac
:10332800f000000007fc0000000000000ff800009b
:1033380007e000001fc000003fff0000ffff000083
:10334800ffff0000ffff0000ffff0000ffff00007d
:10335800ffff0000ffff0000fc030000f80700006b
:10336800fffc00000000000007f8000007e0000074
:103378001f8000003fff0000ffff0000ffff00006c
:10338800ffff0000ffff0000ffff0000ffff00003d
:10339800ffff0000fc010000f8070000fffc000030
:1033a8000000000007f8000007e000003f80000070
:1033b8007fff0000ffff0000ffff0000ffff00008d
:1033c800ffff0000ffff0000ffff0000ff8000007c
:1033d8007e010000f8070000fffc0000000000006c
:1033e80007f0000007c000003f8000007fff0000da
:1033f800ffff0000ffff0000ffff0000ffff0000cd
:10340800ffff0000ffff0000ff8000007e010000ba
:10341800f8030000fffc000001f8000007f00000be
:103428000fc000003f0000007fff0000ffff00000a
:10343800ffff0000ffff0000ffff0000ffff00008c
:10344800ffff0000ffc000003e010000fc03000079
:10345800fffc000003f8000007f80000000000006f
:103468007f000000001f0000ffff0000ffff0000ba
:10347800ffff0000ffff0000ffff0000ffff00004c
:10348800ffc0000000010000fc030000fffc00007a
:1034980003f8000007fc000000010000ff00000026
:1034a800001f0000ffff0000ffff0000ffff0000fb
:1034b800ffff0000ffff0000ffff0000fff000001b
:1034c80000070000fc030000fffc000003f80000f8
:1034d80007fe000000030000fe000000003f00009f
:1034e800ffff0000ffff0000ffff0000ffff0000dc
:1034f800ffff0000ffff0000fff80000000f0000c2
:10350800fe030000fffc000003f8000003ff0000ba
:1035180000070000fe000000003f0000ffff000061
:10352800ffff0000ffff0000ffff0000ffff00009b
:10353800ffff0000fffe0000001f0000fe03000068
:10354800fffc000003fc000007ff0000ffff000075
:10355800ffff0000ffff0000ffff0000ffff00006b
:10356800ffff0000ffff0000ffff0000ffff00005b
:10357800ffff0000ffff0000ffff0000ffff00004b
:10358800ffff0000ffff0000ffff0000ffff00003b
:10359800ffff0000ffff0000ffff0000ffff00002b
:1035a800ffff0000ffff0000ffff0000ffff00001b
:1035b800ffff0000ffff0000ffff0000ffff00000b
:1035c800ffff0000ffff0000ffff0000ffff0000fb
:1035d800ffff0000ffff0000ffff0000ffff0000eb
:1035e800ffff0000ffff0000ffff0000ffff0000db
:1035f800ffff0000ffff0000ffff0000ffff0000cb
:10360800ffff0000ffff0000ffff0000ffff0000ba
:10361800ffff0000ffff0000ffff0000ffff0000aa
:10362800ffff0000ffff0000ffff0000ffff00009a
:10363800ffff0000ffff0000ffff0000ffff00008a
:10364800ffff0000ffff0000ffff0000ffff00007a
:10365800ffff0000ffff0000ffff0000ffff00006a
:10366800ffff0000ffff0000ffff0000ffff00005a
:10367800ffff0000ffff0000ffff0000ffff00004a
:10368800ffff0000ffff0000ffff0000ffff00003a
:10369800ffff0000ffff0000ffff0000ffff00002a
:1036a800ffff0000ffff0000ffff0000ffff00001a
:1036b800ffff0000ffff0000ffff0000ffff00000a
:1036c800ffff0000ffff0000ffff0000ffff0000fa
:1036d800ffff0000ffff0000ffff0000ffff0000ea
:1036e800ffff0000ffff0000ffff0000ffff0000da
:1036f800ffff0000ffff0000ffff0000ffff0000ca
:10370800ffff0000ffff0000f8030000fc070000b7
:10371800f8010000f8030000ff0000003ff000007f
:10372800001f0000ff000000000f0000ff00000065
:1037380000000000fc000000001f0000ffc00000a7
:10374800001f0000f8010000fe030000fc0000005c
:10375800f8030000ff0000003ff00000001f000019
:10376800ff00000000070000ff000000000100004b
:10377800f8000000000f0000fe000000001f00001d
:10378800fc000000ff000000fc0000007c010000bd
:10379800ff0000001ff00000001f0000ff000000f5
:1037a80000010000ff00000000010000f800000018
:1037b80000070000f8000000000f0000fe000000f5
:1037c8007f0000007e0000007e000000ff800000f7
:1037d8001ff00000000f0000ff00000000000000c4
:1037e800fe00000000030000f000000000070000d9
:1037f800f0000000000f0000ff0000003f80000004
:103808003e0000003f0000007f8000001ff0000025
:10381800000f0000ff010000f8010000fe0000009a
:103828003fff0000f0030000f0070000e00f000079
:10383800e01f0000ff8000001fc000001f00000004
:103848003f8000007f8000001ff00000000f000094
:10385800ff010000fc010000fe0000003fff000027
:10386800e0070000e00f0000e01f0000c03f00007c
:10387800ffc000000fe00000078000001f8000006c
:103888003f8000001ff00000000f0000ff01000053
:10389800f8010000fe0000007fff0000e0070000c4
:1038a800c01f0000c03f0000807f0000ffe0000054
:1038b80007f00000038000001fc000001f80000008
:1038c8001ff0000000070000ff010000f8010000e1
:1038d800fc0000007fff0000c00f0000c01f0000b8
:1038e800803f000000ff0000fff0000007f000002c
:1038f80001c000000fe000000fc000001ff0000032
:1039080000070000ff010000f8010000fc000000b3
:103918007fff0000c00f0000803f0000007e000015
:1039280001ff0000fff8000003f8000000c00000dd
:1039380007f000000fc000001ff00000080700009b
:10394800ff010000f8030000fc000000ffff00007a
:10395800801f0000807f000000ff0000ffff0000c4
:10396800fffc000001fc00000060000007f80000f8
:1039780007c000001ff0000008030000ff0100005e
:10398800f8030000f8000000ffff0000803f00007f
:1039980000fe000001ff0000ffff0000fffe000026
:1039a80000fe00000000000003f8000003c0000053
:1039b8000ff000000c030000ff010000f8030000f6
:1039c800f800000000ff0000003e000001fc0000bd
:1039d80003ff0000ffff0000ffff0000007f000062
:1039e8000000000003fc000001c000000ff0000010
:1039f8001c030000ff030000f8030000f8000000ab
:103a080000ff0000007e000007f8000003ff000030
:103a1800ffff0000ffff0000803f00008000000063
:103a280001fe000001c000000ff000001e010000b0
:103a3800ff030000f0030000f800000001fe000092
:103a4800000000003ff8000000030000ffff000036
:103a5800ffff0000c01f00008000000001ff000001
:103a680000e000000ff000001e010000ff0300004e
:103a7800f0030000f8010000fffe00000000000055
:103a88007ffc000000010000ffff0000ffff0000b6
:103a9800e00f0000c000000000ff00000060000010
:103aa8000ff000001e010000ff030000f0070000f7
:103ab800f0030000fffc0000000000003ffe0000d3
:103ac80000000000ffff0000ffff0000f00f0000f3
:103ad800e000000000ff0000802000000ff0000060
:103ae8001f000000ff030000f0070000f0030000c3
:103af800fffc000001f000001fff0000fa000000ba
:103b0800ffff0000ffff0000f8070000f0060000bc
:103b1800007f0000c00000000ff000001f00000040
:103b2800ff030000f0070000f0030000fff80000aa
:103b380003f000001fff0000fe010000ffff00006f
:103b4800ffff0000fc030000f8030000003f000036
:103b5800e00000000ff000001f000000ff0300005d
:103b6800f0070000f0070000fff8000007e0000081
:103b78003fff0000fc030000ffff0000ffff000004
:103b8800fe010000fc010000803f0000f000000082
:103b980007f00000000000007f030000f0070000ad
:103ba800e0070000fff0000007c000003fff000032
:103bb800f8070000ffff0000ffff0000ff00000003
:103bc800fc010000e01f0000f800000007f0000002
:103bd800000000007f030000f00f0000e007000075
:103be800fff000000fc000007e010000f00f000091
:103bf800ffff0000ffff0000ff8000007e000000c4
:103c0800f01f0000f800000007f0000000000000ae
:103c18007f030000e01f0000e00f0000ffe000004d
:103c28001f800000fe030000e01f0000ffff0000ef
:103c3800ffff0000ffc000003f000000f80f000079
:103c4800fc00000007f000001fc000007f0000001b
:103c5800003f0000e00f0000ffe000001f810000af
:103c6800fc070000c07f0000ffff0000ffff00000e
:103c7800ffe000001f8000007e0f0000fe00000033
:103c880007f000001fe000003f00000000ff0000f8
:103c9800c000000007e000003f010000fe00000037
:103ca80000ff0000ffff0000ffff0000ffe0000032
:103cb8000fc000007f070000ff00000007f00000b1
:103cc8001fe000003f00000001ff0000c0000000ee
:103cd8000fc000003e030000fe00000007ff0000c8
:103ce800ffff0000ffff0000fff800002fef0000bb
:103cf800ffff0000ffff0000ffff0000ffff0000c4
:103d0800ffff0000ffff0000ffff0000ffff0000b3
:103d1800ffff0000ffff0000ffff0000ffff0000a3
:103d2800ffff0000ffff0000ffff0000ffff000093
:103d3800ffff0000ffff0000ffff0000ffff000083
:103d4800ffff0000ffff0000ffff0000ffff000073
:103d5800ffff0000ffff0000ffff0000ffff000063
:103d6800ffff0000ffff0000ffff0000ffff000053
:103d7800ffff0000ffff0000ffff0000ffff000043
:103d8800ffff0000ffff0000ffff0000ffff000033
:103d9800ffff0000ffff0000ffff0000ffff000023
:103da800ffff0000ffff0000ffff0000ffff000013
:103db800ffff0000ffff0000ffff0000ffff000003
:103dc800ffff0000ffff0000ffff0000ffff0000f3
:103dd800ffff0000ffff0000ffff0000ffff0000e3
:103de800ffff0000ffff0000ffff0000ffff0000d3
:103df800ffff0000ffff0000ffff0000ffff0000c3
:103e0800ffff0000ffff0000ffff0000ffff0000b2
:103e1800ffff0000ffff0000ffff0000ffff0000a2
:103e2800ffff0000ffff0000ffff0000ffff000092
:103e3800ffff0000ffff0000ffff0000ffff000082
:103e4800ffff0000ffff0000ffff0000ffc00000b1
:103e58003e010000ff0000003fe0000000ff0000fe
:103e6800fffc000000010000c0000000ffc00000cf
:103e78003800000000e000001ff0000003fe000012
:103e8800007e000007ff0000ffe000001e000000a9
:103e9800fc00000007e00000000f0000fffc00002d
:103ea80000010000c00000001f800000300000007a
:103eb80000c000001f80000000fc000000fc0000a3
:103ec80007ff0000fff000000f000000780000006e
:103ed80003e0000000030000fffc000000010000f8
:103ee800c00000000f8000003000000000c000008b
:103ef8001e0000000078000000f800000fff00001e
:103f0800fff00000078000007800000001f00000ca
:103f180000010000fffc000000010000c0000000dc
:103f28000780000030000000018000003c00000015
:103f38000070000001f800001fff0000fff80000fb
:103f480003c000003801000000f000000400000079
:103f5800fffc000001ff0000c0000000038000001b
:103f6800750000003f80000038020000007000006b
:103f780001f000003fff0000fffc000003c000004c
:103f88001c0300008078000007000000fffc000010
:103f980001ff0000c0380000038000007f8000009f
:103fa8007f800000700f000000e0000003e00000c8
:103fb8003fff0000fffe000001e000001c030000be
:103fc800c0380000078000007ffc000001ff0000ef
:103fd800c0380000030000007f0000007f000000e0
:103fe800601e000001c0000003c000007fff000049
:103ff800ffff000000f000000e010000e0380000a4
:10400800038000007ffc000001ff0000c0380000b2
:10401800030000007f000000ff000000e01e000019
:104028000180000007800000ffff0000ffff000084
:104038000070000006010000e01c00000380000082
:104048007ffe000001ff0000c038000003000000f0
:10405800ff000000fe000000c03c000003800000dc
:1040680007010000ffff0000ffff0000807800004c
:1040780007000000f01c000001c000007ffe0000e7
:1040880001ff0000c038000003000000fe0000002f
:10409800fe010000c0380000070000000e03000009
:1040a800ffff0000ffff0000c03c0000038000008d
:1040b800701e000001c000003ffe000001ff00006c
:1040c800c038000007000000fe010000fc010000ed
:1040d80080780000060000000c070000ffff0000c9
:1040e800ffff0000e01e000001800000380e000005
:1040f80001c000003ffe000001ff0000c0380000c2
:1041080007000000fe010000fc03000080f0000032
:104118000e0000001c0f0000ffff0000ffff000062
:10412800f00e000001c000001fff000000e00000ca
:104138003ffe000001ff0000c0380000060100003b
:10414800fc030000fc03000000e000001c0000006d
:10415800181f0000ffff0000ffff0000f80f00001d
:1041680000e0000007ff000000e000003ffe000044
:1041780001ff0000c038000006010000fc03000039
:10418800f807000001e0000018000000303f0000c0
:10419800ffff0000ffff0000f80700008078000024
:1041a80003ff000080e000003fff000001ff000067
:1041b800c038000006010000fc030000f80e0000f3
:1041c80001c0000030000000207f0000ffff000059
:1041d800ffff0000fc030000807c000000ff0000df
:1041e800800000007fff000000010000c0380000d0
:1041f80006010000f8070000f00c000003c00000f2
:104208007000000040ff0000ffff0000ffff0000fb
:10421800fe010000c03f0000007f00008000000099
:10422800ffff000000010000c03800000e0300007e
:10423800f8070000f01c000007800000e000000004
:1042480081ff0000ffff0000ffff0000ff010000ea
:10425800e03f0000801f0000c0010000ffff0000d9
:1042680000010000c03000000c030000f80f00003f
:10427800e018000007000000c080000001ff0000f7
:10428800ffff0000ffff0000ff800000f01f00009c
:10429800e00f0000c00000003fff00000001000028
:1042a800c07000000c030000f80f0000e0380000a8
:1042b8000f010000c080000003ff0000ffff0000a6
:1042c800ffff0000ffc00000700f0000f0030000b7
:1042d800e03800001fff000080ff0000c0700000f1
:1042e8000c030000f00f0000c03000000e030000b7
:1042f8008100000007ff0000ffff0000ffff000033
:10430800ffc00000380f0000fc010000e0180000aa
:104318000fff000080ff0000c07000000c070000c5
:10432800f01f0000c07000001c0300000300000024
:104338000fff0000ffff0000ffff0000ffe000008c
:104348003c070000fe000000f01c000007ff000012
:1043580080ff0000c07000000c070000f01f000084
:10436800c06000003c060000060000001fff0000bf
:10437800ffff0000ffff0000fff000001e03000029
:1043880081800000701c000007ff000080ff000013
:10439800c07000001c070000e01f000080e0000063
:1043a800380e0000060000003fff0000ffff00007d
:1043b800ffff0000fff800000e03000081c00000ae
:1043c800300e000003ff000080ff0000c0700000f6
:1043d80018070000e03f000080c00000781c0000c3
:1043e8000c0000007fff0000ffff0000ffff00003f
:1043f800fffc000007010000c0e00000180e0000ec
:1044080003ff000080ff0000c0700000180f0000cc
:10441800e03f000001c00000701800001c00000010
:10442800ffff0000ffff0000ffff0000fffe00008d
:1044380007800000c0700000180e000003ff000095
:10444800c0ff0000c0700000180f0000c07f00000f
:1044580001800000e030000038010000ffff00008c
:10446800ffff0000ffff0000fffe000003800000c8
:10447800e07800000c07000003ff0000c07f000088
:10448800c0700000180f0000c07e0000038100000b
:10449800e070000078030000ffff0000ffff00004d
:1044a800ffff0000ffff000001c0000060380000af
:1044b8000c07000001ff0000c07f0000c070000072
:1044c800180f0000c07e000003010000c06000005b
:1044d80070070000ffff0000ffff0000ffff000063
:1044e800ffff000080e00000303c000006030000f1
:1044f80001ff0000c07f0000c0600000381f0000fe
:1045080080fc00000703000080c00000e0070000f6
:10451800ffff0000ffff0000ffff0000ffff00009b
:10452800c0f00000381c00000603000081ff0000f6
:10453800c07f0000c0600000301f000080fc000049
:104548000603000081c10000e00f0000ffff00002b
:10455800ffff0000ffff0000ffff0000e070000009
:10456800181e00000703000081ff0000c07f000044
:10457800c0600000301f000081fc00000e07000032
:1045880001830000c01f0000ffff0000ffff0000c4
:10459800ffff0000ffff0000f03800000c0e0000d5
:1045a8000301000080ff0000e07f0000c060000001
:1045b800301f000081f800000c0e00000307000007
:1045c800c03f0000ffff0000ffff0000ffff0000ea
:1045d800ffff0000f80000000e000000038100004b
:1045e80000ff0000e07f0000c0000000703f0000f6
:1045f80001f800001c00000006070000807f000092
:10460800ffff0000ffff0000ffff0000ffff0000aa
:10461800fc0000000f0000000380000001ff000004
:10462800e0000000c0000000703f000003f0000040
:10463800180000000e0f000080ff0000ffff0000c0
:10464800ffff0000ffff0000ffff0000fe0000006a
:104658000f8000000380000001ff0000e000000060
:10466800c0000000e03f000003f000003800000038
:104678003c1f000001ff0000ffff0000ffff0000db
:10468800ffff0000ffff0000ff8000000fe00000b8
:1046980003c0000003ff0000e0000000c0030000aa
:1046a800e07e000007f000003c000000783f0000ba
:1046b80003ff0000ffff0000ffff0000ffff0000f6
:1046c800ffff0000fff000001ff800000fe00000ef
:1046d8000fff0000f0000000c00f0000e07e0000a7
:1046e80007e000007e030000f87e000007ff0000de
:1046f800ffff0000ffff0000ffff0000ffff0000ba
:10470800ffff0000ffff0000ffff0000ffff0000a9
:10471800ffff0000ffff0000ffff0000ffff000099
:10472800ffff0000ffff0000ffff0000ffff000089
:104988000000000000000000000000007fff0000a1
:10499800ffff0000ffff0000ffff0000ffff000017
:1049a800ffff0000ffff0000ffff0000ffff000007
:1049b800ffff0000ffff0000ffff0000ffff0000f7
:1049c800ffff0000fffe00007fff0000ffff000068
:1049d800ffff0000ffff0000ffff0000ffff0000d7
:1049e800ffff0000ffff0000ffff0000ffff0000c7
:1049f800ffff0000ffff0000ffff0000ffff0000b7
:104a0800fffe00007fff0000ffff0000ffff000027
:104a1800ffff0000ffff0000ffff0000ffff000096
:104a2800ffff0000ffff0000ffff0000ffff000086
:104a3800ffff0000ffff0000ffff0000fffe000077
:104a48007fff0000ffff0000ffff0000ffff0000e6
:104a5800ffff0000ffff0000ffff0000ffff000056
:104a6800ffff0000ffff0000ffff0000ffff000046
:104a7800ffff0000ffff0000fffe00007dfb0000bd
:104a8800ffff0000ffff0000ffff0000ffff000026
:104a9800ffff0000ffff0000fbef0000ffff00002a
:104aa800fefb0000dfde0000f3ff0000ffff000058
:104ab800ffff0000ff3e00007c030000ffff000036
:104ac800ffff0000ffff0000ffff0000ffff0000e6
:104ad800ffff0000f80f0000ffff0000fe030000ca
:104ae800c01e000003ff0000ffff0000ffff0000e2
:104af800c07e00007c030000ffff0000ffff0000f5
:104b0800ffff0000ffff0000ffff0000ffff0000a5
:104b1800f80f0000ffff0000fe030000c01e0000a9
:104b280007ff0000ffff0000ffff0000c07e00003d
:104b38007e030000ffff0000ffff0000ffff0000f2
:104b4800ffff0000ffff0000ffff0000f80f00005c
:104b5800ffff0000fe030000c01c000007ff00006c
:104b6800ffff0000ffff000080fe00007e01000044
:104b7800ffff0000ffff0000ffff0000ffff000035
:104b8800ffff0000ffff0000f80f0000ffff00001c
:104b9800fe030000801c000007ff0000ffff00006c
:104ba800ffff000080fe00007f010000ffff000003
:104bb800ffff0000ffff0000ffff0000ffff0000f5
:104bc800ffff0000f80f0000ffff0000fe030000d9
:104bd800803c00000fff0000ffff0000ffff000007
:104be80080fe00007f010000ffff0000ffff0000c3
:104bf800ffff0000ffff0000ffff0000ffff0000b5
:104c0800f80f0000ffff0000fe030000803c0000da
:104c18000fff0000ffff0000ffff000001fe000083
:104c28007f000000ffff0000ffff0000ffff000003
:104c3800ffff0000ffff0000ffff0000f80f00006b
:104c4800ffff0000fe030000803800000fff000097
:104c5800ffff0000ffff000001fe00007f80000052
:104c6800ffff0000ffff0000ffff0000ffff000044
:104c7800ffff0000ffff0000f80f0000ffff00002b
:104c8800fe070000003800000fff0000ffff0000d3
:104c9800ffff000001fe00007f800000ffff000012
:104ca800ffff0000ffff0000ffff0000ffff000004
:104cb800ffff0000f80f0000ffff0000fe070000e4
:104cc800003800001fff0000ffff0000fffe00008b
:104cd80003fe00007f8000007fff0000ffff000050
:104ce800ffff0000ffff0000ffff0000ffff0000c4
:104cf800f80f0000ffff0000fe070000003800006a
:104d08001fff0000ffff0000fffe000003fe000081
:104d18007fc000007ff800001ffc00000fc00000eb
:104d280043ff000003f00000107f0000080f0000a0
:104d3800c0ff0000fe070000003000001f810000d7
:104d4800f80c00003f86000003fe00007fc0000052
:104d58007ff0000007f8000003c0000080fc00009e
:104d680000f00000003c0000000f0000003f0000c1
:104d7800fe060000003000001e0000007800000061
:104d88001e00000007fe00007fc000003fe000009a
:104d980001f0000001c00000007800000070000071
:104da80000180000000e0000001f0000fc060000b4
:104db800003000003c000000780000001c000000eb
:104dc80007fe00007fe000003fe0000001e0000077
:104dd80000c000000078000000300000001800004b
:104de800000e0000001f0000fc060000003000005c
:104df80038000000380000001800000007fe00001e
:104e08007fe000003fc0000000e00000004000001c
:104e1800003000000030000000180000000c000006
:104e2800000f0000fc060000002000003800000011
:104e380030000000080000000ffe00007fe00000c6
:104e48001fc000000060000000600000003000008b
:104e58000030000000080000000c0000000f0000f7
:104e6800fc06000000200000700000003000000078
:104e7800100000000ffe00007ff000001fc00000bf
:104e8800006000000020000000300000001000005a
:104e98000008000000080000000f0000fc040000eb
:104ea80000600000700000003000000010000000ea
:104eb8001ffe00007ff000001fe00000002000003f
:104ec8000020000000300000001000000008000072
:104ed80000080000000f0000fc0400000040000073
:104ee8006000000030000000100000001ffe0000fd
:104ef8007ff000000fe0000060200000302000007c
:104f080030300000101800001808000018080000d1
:104f18000c0f0000fc0400000040000060200000ae
:104f280020300000003000001ffe00007ff8000065
:104f38000fe00000302000003000000030100000ba
:104f48001818000018080000180800000c0f0000ce
:104f5800fc04000000400000e06000002030000079
:104f6800203000003ffe00007ff800000fe0000046
:104f78003030000030100000301000001818000019
:104f880018080000180800000c0f0000fc000000c2
:104f980000400000c06000002060000020600000a9
:104fa8003ffe00007ffc000007f00000301000000a
:104fb8003010000030180000181800001808000011
:104fc800180800000c0f0000fc0000000040000062
:104fd800c060000060600000206000003ffe00002c
:104fe8007ffc000007f000003010000018100000df
:104ff8001818000018080000180800001808000019
:105008000c0f0000fc00000000000000c0c0000001
:1050180040600000406000007ffe00007ffc000050
:1050280007f0000018100000181000001818000001
:10503800180800001808000018080000080f0000f1
:10504800fc08000000010000c0c000004040000053
:1050580040c000007ffe00007ffe000003f8000053
:1050680018180000180000001818000018080000a0
:105078000c08000018080000080f0000fc000000e1
:1050880000010000c0c00000c0c0000040c0000017
:105098007ffe00007ffe000003f8000018080000f3
:1050a8001808000018080000180800000c08000084
:1050b80018080000180f0000fc00000000010000a4
:1050c80080c00000c0c0000080c00000fffe0000db
:1050d8007ffe000003f800000c0800000c08000028
:1050e80018080000180800000c0800001808000044
:1050f800180f0000fc000000000100008080000084
:1051080080c0000081800000fffe00007fff0000db
:1051180001f800000c0800000c0800001808000046
:10512800080800000c08000018080000180f00000c
:10513800fc00000000030000818000008080000067
:1051480081800000fffe00007fff000001fc0000de
:105158000c0c00000c0800000c0c000008080000f3
:105168000c08000018080000180f0000fc000000e0
:1051780040030000810100008180000001810000df
:10518800fffe00007fff000001fc00000e0400008d
:105198000c0000000c0f0000f00c00000c080000d0
:1051a80018080000180f0000fc00000000030000b1
:1051b800fe0100008181000001010000fffe0000e7
:1051c8007fff000080fc00000004000004040000d1
:1051d8000c0f0000e00c00000ff800001808000099
:1051e800180f0000fc00000000030000f801000098
:1051f80001ff000003030000fffe00007fff000026
:1052080080fe000000040000060400000c0f0000ef
:10521800c00c00000ff8000008080000180f00007c
:10522800fc00000000070000f001000003fe000081
:1052380003030000fffe00007fff000080fe000067
:1052480000060000060400000c07000080040000af
:105258000ff8000008080000181f0000fc000000fc
:1052680080070000e001000003fe000002030000c8
:10527800fffe00007fff0000c07e0000000200006b
:10528800060400000c070000800400000ff800006e
:1052980008080000181f0000fc000000800700003c
:1052a800c003000003fe000006070000fffe000028
:1052b8007fff0000c07f0000000200000600000021
:1052c80006070000000400000ff8000008080000ae
:1052d800181f0000fc00000080070000800200008a
:1052e80003fc000006070000fffe00007fff00002f
:1052f800e07f000000020000030200000606000034
:10530800000400000ff8000008080000181f000043
:10531800fc000000800f00000002000007fc0000f5
:1053280004070000fffe00007fff0000e03f0000d0
:10533800000100000302000006060000020400004d
:105348000ff8000008080000181f0000fc0000000b
:10535800800f00000002000007fc00000c0f000096
:10536800fffe00007fff0000e03f000081ff00001b
:105378000302000006060000060400000ff8000003
:1053880008080000181f0000fc010000800e000043
:105398000206000007fc00000c0f0000fffe0000e2
:1053a8007fff0000f03f0000818100000302000041
:1053b800060600000604000007f8000008080000c0
:1053c800181f0000fc010000800e00000604000009
:1053d80007f80000080f0000fffe00007fff000034
:1053e800f01f00008181000001000000020200009f
:1053f8000604000007f8000008080000181f000055
:10540800f8010000801e0000060400000ff80000ec
:10541800181f0000fffe00007fff0000f01f0000c3
:105428008080000081810000030200000604000063
:1054380007f8000008080000181f0000f801000025
:10544800801c0000040400000ff80000181f000072
:10545800fffe00007fff0000f81f0000c0c0000032
:1054680081810000030200000606000007f8000022
:1054780008080000181f0000f8010000801c000048
:105488000c0c00000ff00000101f0000fffe0000d1
:105498007fff0000f80f0000c0c0000081810000fd
:1054a800030200000206000007f8000008080000d8
:1054b800181f0000f8030000001c00000c08000082
:1054c8001ff00000303f0000fffe00007fff0000db
:1054d800f80f0000c0c00000808100000303000036
:1054e8000202000007fc000008080000181f000066
:1054f800f8030000003c00000c0800001ff000004a
:10550800303f0000fffe00007fff0000fc0f00009e
:10551800e060000040c00000030300000302000038
:1055280007fc000008080000181f0000f80300002e
:10553800003c0000080800001fe00000203f0000b9
:10554800fffe00007fff0000fc070000e060000095
:1055580040c00000810100000302000007fc0000b9
:1055680008080000101f0000f803000000380000c1
:10557800181800001fe00000607f0000fffe000018
:105588007fff0000fc070000e060000040c0000052
:10559800818100000302000007fc000008080000e9
:1055a800101f0000f8070000003800001810000065
:1055b8003fe00000607f0000fffe00007fff00006a
:1055c800fe070000f020000060c00000818100009c
:1055d8000302000007fc000008080000103f00005c
:1055e800f807000000780000181000003fe00000f5
:1055f80040ff0000fffe00007fff0000fe030000e8
:10560800f03000002040000081810000030200000b
:1056180007fc000008080000103f0000f807000021
:1056280000780000101000003fc00000c0ff00001c
:10563800fffe00007fff0000fe00000000100000d9
:1056480020400000018100000102000007fc00006a
:1056580008180000103f0000f8070000007800005c
:10566800102000003fc0000080ff0000fffe000087
:105678007fff0000ff00000008000000200000007d
:10568800408100008002000007fc000000180000b4
:10569800003f0000f8070000007000000020000034
:1056a8007fc0000001ff0000fffe00007fff000038
:1056b800ff000000080000003000000040810000ea
:1056c8008002000007fc000000180000003f0000f6
:1056d800f80f000000f00000002000007f800000ac
:1056e80001ff0000fffe00007fff0000ff800000b8
:1056f800040000003800000040c0000080030000e3
:1057080007fc000000180000003f0000f80f000030
:1057180000f00000002000007f80000001ff000072
:10572800fffe00007fff0000ff8000000600000071
:105738003800000040c000008003000003fe0000a5
:10574800001c0000007f0000f80f000000f00000bf
:1057580000400000ff80000003ff0000fffe000083
:105768007fff0000ff800000060000003c000000f2
:10577800c0c00000c001000003fe0000001c0000c3
:10578800007f0000f80f000000f00000004000005b
:10579800ffc0000003ff0000fffe00007fff0000c5
:1057a800ffc00000038000007e000000e040000011
:1057b800e041000003ff0000020e000000ff0000af
:1057c800f80f000001f8000000400000ffc00000d2
:1057d80083ff0000fffe00007fff0000ffc0000005
:1057e80003c00000ff810000e0400000f04100001d
:1057f80003ff0000860f000003ff0000f80e000002
:1058080001fc000010400000ffe1000083ff0000e1
:10581800fffe00007fff0000ffff0000ffff000009
:10582800ffff0000ffff0000ffff0000ffff000078
:10583800ffff0000ffff0000ffff0000ffff000068
:10584800ffff0000ffff0000ffff0000fffe000059
:105858007fff0000ffff0000ffff0000ffff0000c8
:10586800ffff0000ffff0000ffff0000ffff000038
:10587800ffff0000ffff0000ffff0000ffff000028
:10588800ffff0000ffff0000fffe00007fff000099
:10589800ffff0000ffff0000ffff0000ffff000008
:1058a800ffff0000ffff0000ffff0000ffff0000f8
:1058b800ffff0000ffff0000ffff0000ffff0000e8
:1058c800ffff0000fffe00007fff0000ffff000059
:1058d800ffff0000ffff0000ffff0000ffff0000c8
:1058e800ffff0000ffff0000ffff0000ffff0000b8
:1058f800ffff0000ffff0000ffff0000ffff0000a8
:10590800fffe00007fff0000ffbc0000f79f0000c3
:10591800ffff0000ffff000037ff0000c9ff000085
:10592800ff9e000073cf0000ffff0000ffff000094
:10593800ffff0000ffff0000ffff0000fffe000068
:105948007fff0000ff800000f01f0000ffff000045
:10595800ffff000007ff0000c1ff0000ff800000fc
:10596800f80f0000ffff0000ffff0000ffff00002e
:10597800ffff0000ffff0000fffe00007fff0000a8
:10598800ff010000e01f0000ffff0000ffff000014
:1059980007ff0000c1ff0000ff800000f00f0000bb
:1059a800ffff0000ffff0000ffff0000ffff0000f7
:1059b800ffff0000fffe00007fff0000ff01000066
:1059c800e03f0000ffff0000ffff000007ff0000ae
:1059d800c1ff0000ff800000700f0000ffff000003
:1059e800ffff0000ffff0000ffff0000ffff0000b7
:1059f800fffe00007fff0000fe010000c03f000026
:105a0800ffff0000ffff000007ff0000c1ff0000cc
:105a1800ff800000700f0000ffff0000ffff000084
:105a2800ffff0000ffff0000ffff0000fffe000077
:105a38007fff0000fe010000c03f0000ffff0000e4
:105a4800fffe000007ff0000c1ff0000ff8000000c
:105a5800700f0000ffff0000ffff0000ffff0000c5
:105a6800ffff0000ffff0000fffe00007fff0000b7
:105a7800fe030000c03f0000ffff0000fffe000023
:105a88000fff000081ff0000ff800000700f000082
:105a9800ffff0000ffff0000ffff0000ffff000006
:105aa800ffff0000fffe00007fff0000fc03000076
:105ab800807f0000ffff0000fffe00000fff0000d6
:105ac80083ff0000ff800000700f0000ffff000050
:105ad800ffff0000ffff0000ffff0000ffff0000c6
:105ae800fffe00007fff0000fc030000807f000035
:105af800ffff0000fffe00000fff000081ff000015
:105b0800ff800000700f0000ffff0000ffff000093
:105b1800ffff0000ffff0000ffff0000fffe000086
:105b28007fff0000fc030000007f0000ffff000073
:105b3800ffff0000ffff0000ffff0000ff800000e4
:105b4800700f0000ffff0000ffff0000ffff0000d4
:105b5800ffff0000ffff0000fffe00007fff0000c6
:105b6800f807000000ff0000ffff0000ffff000033
:105b7800ffff0000ffff0000ff800000700f000023
:105b8800ffff0000ffff0000ffff0000ffff000015
:105b9800ffff0000fffe00007fff0000f807000085
